{
  "_format": "hh3-artifact-1",
  "contractName": "GenesoMarketplace",
  "sourceName": "src/GenesoMarketplace.sol",
  "abi": [
    {
      "inputs": [
        {
          "internalType": "address",
          "name": "initialOwner",
          "type": "address"
        },
        {
          "internalType": "address",
          "name": "initialFeeRecipient",
          "type": "address"
        },
        {
          "internalType": "uint16",
          "name": "initialFeeBps",
          "type": "uint16"
        }
      ],
      "stateMutability": "nonpayable",
      "type": "constructor"
    },
    {
      "inputs": [
        {
          "internalType": "address",
          "name": "owner",
          "type": "address"
        }
      ],
      "name": "OwnableInvalidOwner",
      "type": "error"
    },
    {
      "inputs": [
        {
          "internalType": "address",
          "name": "account",
          "type": "address"
        }
      ],
      "name": "OwnableUnauthorizedAccount",
      "type": "error"
    },
    {
      "inputs": [],
      "name": "ReentrancyGuardReentrantCall",
      "type": "error"
    },
    {
      "anonymous": false,
      "inputs": [
        {
          "indexed": true,
          "internalType": "uint256",
          "name": "listingId",
          "type": "uint256"
        },
        {
          "indexed": true,
          "internalType": "address",
          "name": "seller",
          "type": "address"
        },
        {
          "indexed": true,
          "internalType": "address",
          "name": "bidder",
          "type": "address"
        },
        {
          "indexed": false,
          "internalType": "uint256",
          "name": "amount",
          "type": "uint256"
        }
      ],
      "name": "BidAccepted",
      "type": "event"
    },
    {
      "anonymous": false,
      "inputs": [
        {
          "indexed": true,
          "internalType": "uint256",
          "name": "listingId",
          "type": "uint256"
        },
        {
          "indexed": true,
          "internalType": "address",
          "name": "bidder",
          "type": "address"
        }
      ],
      "name": "BidCancelled",
      "type": "event"
    },
    {
      "anonymous": false,
      "inputs": [
        {
          "indexed": true,
          "internalType": "uint256",
          "name": "listingId",
          "type": "uint256"
        },
        {
          "indexed": true,
          "internalType": "address",
          "name": "bidder",
          "type": "address"
        },
        {
          "indexed": false,
          "internalType": "uint256",
          "name": "amount",
          "type": "uint256"
        },
        {
          "indexed": false,
          "internalType": "uint64",
          "name": "expiresAt",
          "type": "uint64"
        }
      ],
      "name": "BidPlaced",
      "type": "event"
    },
    {
      "anonymous": false,
      "inputs": [
        {
          "indexed": true,
          "internalType": "address",
          "name": "oldRecipient",
          "type": "address"
        },
        {
          "indexed": true,
          "internalType": "address",
          "name": "newRecipient",
          "type": "address"
        }
      ],
      "name": "FeeRecipientUpdated",
      "type": "event"
    },
    {
      "anonymous": false,
      "inputs": [
        {
          "indexed": true,
          "internalType": "uint256",
          "name": "listingId",
          "type": "uint256"
        },
        {
          "indexed": true,
          "internalType": "address",
          "name": "buyer",
          "type": "address"
        },
        {
          "indexed": false,
          "internalType": "uint256",
          "name": "amount",
          "type": "uint256"
        }
      ],
      "name": "ListingBought",
      "type": "event"
    },
    {
      "anonymous": false,
      "inputs": [
        {
          "indexed": true,
          "internalType": "uint256",
          "name": "listingId",
          "type": "uint256"
        },
        {
          "indexed": true,
          "internalType": "address",
          "name": "seller",
          "type": "address"
        }
      ],
      "name": "ListingCancelled",
      "type": "event"
    },
    {
      "anonymous": false,
      "inputs": [
        {
          "indexed": true,
          "internalType": "uint256",
          "name": "listingId",
          "type": "uint256"
        },
        {
          "indexed": true,
          "internalType": "address",
          "name": "seller",
          "type": "address"
        },
        {
          "indexed": true,
          "internalType": "address",
          "name": "nft",
          "type": "address"
        },
        {
          "indexed": false,
          "internalType": "uint256",
          "name": "tokenId",
          "type": "uint256"
        },
        {
          "indexed": false,
          "internalType": "uint256",
          "name": "price",
          "type": "uint256"
        }
      ],
      "name": "ListingCreated",
      "type": "event"
    },
    {
      "anonymous": false,
      "inputs": [
        {
          "indexed": true,
          "internalType": "address",
          "name": "previousOwner",
          "type": "address"
        },
        {
          "indexed": true,
          "internalType": "address",
          "name": "newOwner",
          "type": "address"
        }
      ],
      "name": "OwnershipTransferred",
      "type": "event"
    },
    {
      "anonymous": false,
      "inputs": [
        {
          "indexed": false,
          "internalType": "uint16",
          "name": "oldFeeBps",
          "type": "uint16"
        },
        {
          "indexed": false,
          "internalType": "uint16",
          "name": "newFeeBps",
          "type": "uint16"
        }
      ],
      "name": "PlatformFeeUpdated",
      "type": "event"
    },
    {
      "inputs": [],
      "name": "MAX_FEE_BPS",
      "outputs": [
        {
          "internalType": "uint16",
          "name": "",
          "type": "uint16"
        }
      ],
      "stateMutability": "view",
      "type": "function"
    },
    {
      "inputs": [
        {
          "internalType": "uint256",
          "name": "listingId",
          "type": "uint256"
        }
      ],
      "name": "acceptBid",
      "outputs": [],
      "stateMutability": "nonpayable",
      "type": "function"
    },
    {
      "inputs": [
        {
          "internalType": "uint256",
          "name": "listingId",
          "type": "uint256"
        }
      ],
      "name": "buy",
      "outputs": [],
      "stateMutability": "payable",
      "type": "function"
    },
    {
      "inputs": [
        {
          "internalType": "uint256",
          "name": "listingId",
          "type": "uint256"
        }
      ],
      "name": "cancelBid",
      "outputs": [],
      "stateMutability": "nonpayable",
      "type": "function"
    },
    {
      "inputs": [
        {
          "internalType": "uint256",
          "name": "listingId",
          "type": "uint256"
        }
      ],
      "name": "cancelListing",
      "outputs": [],
      "stateMutability": "nonpayable",
      "type": "function"
    },
    {
      "inputs": [
        {
          "internalType": "address",
          "name": "nft",
          "type": "address"
        },
        {
          "internalType": "uint256",
          "name": "tokenId",
          "type": "uint256"
        },
        {
          "internalType": "uint256",
          "name": "price",
          "type": "uint256"
        }
      ],
      "name": "createListing",
      "outputs": [],
      "stateMutability": "nonpayable",
      "type": "function"
    },
    {
      "inputs": [],
      "name": "feeRecipient",
      "outputs": [
        {
          "internalType": "address",
          "name": "",
          "type": "address"
        }
      ],
      "stateMutability": "view",
      "type": "function"
    },
    {
      "inputs": [
        {
          "internalType": "uint256",
          "name": "listingId",
          "type": "uint256"
        }
      ],
      "name": "getHighestBid",
      "outputs": [
        {
          "components": [
            {
              "internalType": "address",
              "name": "bidder",
              "type": "address"
            },
            {
              "internalType": "uint256",
              "name": "amount",
              "type": "uint256"
            },
            {
              "internalType": "uint64",
              "name": "expiresAt",
              "type": "uint64"
            },
            {
              "internalType": "bool",
              "name": "active",
              "type": "bool"
            }
          ],
          "internalType": "struct GenesoMarketplace.Bid",
          "name": "",
          "type": "tuple"
        }
      ],
      "stateMutability": "view",
      "type": "function"
    },
    {
      "inputs": [
        {
          "internalType": "uint256",
          "name": "listingId",
          "type": "uint256"
        }
      ],
      "name": "getListing",
      "outputs": [
        {
          "components": [
            {
              "internalType": "address",
              "name": "seller",
              "type": "address"
            },
            {
              "internalType": "address",
              "name": "nft",
              "type": "address"
            },
            {
              "internalType": "uint256",
              "name": "tokenId",
              "type": "uint256"
            },
            {
              "internalType": "address",
              "name": "paymentToken",
              "type": "address"
            },
            {
              "internalType": "uint256",
              "name": "price",
              "type": "uint256"
            },
            {
              "internalType": "bool",
              "name": "active",
              "type": "bool"
            }
          ],
          "internalType": "struct GenesoMarketplace.Listing",
          "name": "",
          "type": "tuple"
        }
      ],
      "stateMutability": "view",
      "type": "function"
    },
    {
      "inputs": [
        {
          "internalType": "address",
          "name": "user",
          "type": "address"
        }
      ],
      "name": "getUserStats",
      "outputs": [
        {
          "internalType": "uint256",
          "name": "activeListings",
          "type": "uint256"
        },
        {
          "internalType": "uint256",
          "name": "activeBids",
          "type": "uint256"
        },
        {
          "internalType": "uint256",
          "name": "purchases",
          "type": "uint256"
        }
      ],
      "stateMutability": "view",
      "type": "function"
    },
    {
      "inputs": [],
      "name": "owner",
      "outputs": [
        {
          "internalType": "address",
          "name": "",
          "type": "address"
        }
      ],
      "stateMutability": "view",
      "type": "function"
    },
    {
      "inputs": [
        {
          "internalType": "uint256",
          "name": "listingId",
          "type": "uint256"
        },
        {
          "internalType": "uint64",
          "name": "expiresAt",
          "type": "uint64"
        }
      ],
      "name": "placeBid",
      "outputs": [],
      "stateMutability": "payable",
      "type": "function"
    },
    {
      "inputs": [],
      "name": "platformFeeBps",
      "outputs": [
        {
          "internalType": "uint16",
          "name": "",
          "type": "uint16"
        }
      ],
      "stateMutability": "view",
      "type": "function"
    },
    {
      "inputs": [],
      "name": "renounceOwnership",
      "outputs": [],
      "stateMutability": "nonpayable",
      "type": "function"
    },
    {
      "inputs": [
        {
          "internalType": "address",
          "name": "newRecipient",
          "type": "address"
        }
      ],
      "name": "setFeeRecipient",
      "outputs": [],
      "stateMutability": "nonpayable",
      "type": "function"
    },
    {
      "inputs": [
        {
          "internalType": "uint16",
          "name": "newFeeBps",
          "type": "uint16"
        }
      ],
      "name": "setPlatformFee",
      "outputs": [],
      "stateMutability": "nonpayable",
      "type": "function"
    },
    {
      "inputs": [],
      "name": "totalListings",
      "outputs": [
        {
          "internalType": "uint256",
          "name": "",
          "type": "uint256"
        }
      ],
      "stateMutability": "view",
      "type": "function"
    },
    {
      "inputs": [
        {
          "internalType": "address",
          "name": "newOwner",
          "type": "address"
        }
      ],
      "name": "transferOwnership",
      "outputs": [],
      "stateMutability": "nonpayable",
      "type": "function"
    }
  ],
  "bytecode": "0x608060405234801561000f575f80fd5b50604051611bdc380380611bdc83398101604081905261002e916101cb565b826001600160a01b03811661005d57604051631e4fbdf760e01b81525f60048201526024015b60405180910390fd5b61006681610161565b5060017f9b779b17422d0df92223018b32b4d1fa46e071723d6817e2486d003becc55f00556001600160a01b0382166100e15760405162461bcd60e51b815260206004820152601560248201527f66656520726563697069656e74206973207a65726f00000000000000000000006044820152606401610054565b6103e861ffff821611156101265760405162461bcd60e51b815260206004820152600c60248201526b0cccaca40e8dede40d0d2ced60a31b6044820152606401610054565b600280546001600160b01b031916620100006001600160a01b03949094169390930261ffff19169290921761ffff9190911617905550610215565b5f80546001600160a01b038381166001600160a01b0319831681178455604051919092169283917f8be0079c531659141344cd1fd0a4f28419497f9722a3daafe3b4186f6b6457e09190a35050565b80516001600160a01b03811681146101c6575f80fd5b919050565b5f805f606084860312156101dd575f80fd5b6101e6846101b0565b92506101f4602085016101b0565b9150604084015161ffff8116811461020a575f80fd5b809150509250925092565b6119ba806102225f395ff3fe608060405260043610610105575f3560e01c8063715018a611610092578063c78b616c11610062578063c78b616c146104b1578063d55be8c6146104d4578063d96a094a146104e9578063e74b981b146104fc578063f2fde38b1461051b575f80fd5b8063715018a61461037f5780638da5cb5b146103935780638f288644146103af5780639703ef3514610492575f80fd5b8063305a67a8116100d8578063305a67a81461028b57806346904840146102aa5780634e43603a146102e757806356aa18941461034d5780635cbc742c14610360575f80fd5b8063107a274a1461010957806322dcd13e1461021e57806324780c561461024b5780632b1fd58a1461026c575b5f80fd5b348015610114575f80fd5b506101bc61012336600461179c565b6040805160c0810182525f80825260208201819052918101829052606081018290526080810182905260a0810191909152505f90815260036020818152604092839020835160c08101855281546001600160a01b039081168252600183015481169382019390935260028201549481019490945291820154166060830152600481015460808301526005015460ff16151560a082015290565b604051610215919081516001600160a01b03908116825260208084015182169083015260408084015190830152606080840151909116908201526080808301519082015260a09182015115159181019190915260c00190565b60405180910390f35b348015610229575f80fd5b506002546102389061ffff1681565b60405161ffff9091168152602001610215565b348015610256575f80fd5b5061026a6102653660046117ce565b61053a565b005b348015610277575f80fd5b5061026a61028636600461179c565b610771565b348015610296575f80fd5b5061026a6102a536600461179c565b610b87565b3480156102b5575f80fd5b506002546102cf906201000090046001600160a01b031681565b6040516001600160a01b039091168152602001610215565b3480156102f2575f80fd5b506103326103013660046117fe565b6001600160a01b03165f90815260056020908152604080832054600683528184205460079093529220549192909190565b60408051938452602084019290925290820152606001610215565b61026a61035b36600461181e565b610cea565b34801561036b575f80fd5b5061026a61037a366004611858565b610fbd565b34801561038a575f80fd5b5061026a611061565b34801561039e575f80fd5b505f546001600160a01b03166102cf565b3480156103ba575f80fd5b5061044a6103c936600461179c565b604080516080810182525f808252602082018190529181018290526060810191909152505f90815260046020908152604091829020825160808101845281546001600160a01b031681526001820154928101929092526002015467ffffffffffffffff811692820192909252600160401b90910460ff161515606082015290565b604051610215919081516001600160a01b031681526020808301519082015260408083015167ffffffffffffffff169082015260609182015115159181019190915260800190565b34801561049d575f80fd5b5061026a6104ac36600461179c565b611074565b3480156104bc575f80fd5b506104c660015481565b604051908152602001610215565b3480156104df575f80fd5b506102386103e881565b61026a6104f736600461179c565b611202565b348015610507575f80fd5b5061026a6105163660046117fe565b61150b565b348015610526575f80fd5b5061026a6105353660046117fe565b6115b8565b6105426115f2565b6001600160a01b03831661058b5760405162461bcd60e51b815260206004820152600b60248201526a6e6674206973207a65726f60a81b60448201526064015b60405180910390fd5b5f81116105ca5760405162461bcd60e51b815260206004820152600d60248201526c7072696365206973207a65726f60981b6044820152606401610582565b6040516323b872dd60e01b81526001600160a01b038416906323b872dd906105fa90339030908790600401611879565b5f604051808303815f87803b158015610611575f80fd5b505af1158015610623573d5f803e3d5ffd5b505050506001805f82825461063891906118b1565b90915550506040805160c081018252338082526001600160a01b0386811660208085019182528486018881525f60608701818152608088018a8152600160a08a018181528154855260038088528c86209b518c546001600160a01b0319908116918c16919091178d5598518c840180548b16918c16919091179055955160028c01559251948a01805490971694909716939093179094559051600487015591516005958601805460ff19169115159190911790559281529290915291812080549091906107069084906118b1565b909155505060015460408051848152602081018490526001600160a01b03861692339290917f508c75a3cb42c068e54cf9e0b738921b4e2375725c5965ef4a110475606fc05a910160405180910390a461076c60015f8051602061196583398151915255565b505050565b6107796115f2565b5f818152600360205260409020600581015460ff166107aa5760405162461bcd60e51b8152600401610582906118ca565b80546001600160a01b031633146107f05760405162461bcd60e51b815260206004820152600a6024820152693737ba1039b2b63632b960b11b6044820152606401610582565b5f8281526004602052604090206002810154600160401b900460ff166108485760405162461bcd60e51b815260206004820152600d60248201526c1b9bc81858dd1a5d9948189a59609a1b6044820152606401610582565b60028101544267ffffffffffffffff90911610156108965760405162461bcd60e51b815260206004820152600b60248201526a189a5908195e1c1a5c995960aa1b6044820152606401610582565b60018082018054835460028501805460ff60401b191690555f928390556001600160a01b031680835260066020526040832080549294919391929091906108de9084906118f4565b90915550506005808501805460ff19169055335f908152602091909152604081208054600192906109109084906118f4565b90915550506001600160a01b0381165f90815260076020526040812080546001929061093d9084906118b1565b90915550506002545f90612710906109599061ffff1685611907565b610963919061191e565b90505f61097082856118f4565b90505f60028054906101000a90046001600160a01b03166001600160a01b0316836040515f6040518083038185875af1925050503d805f81146109ce576040519150601f19603f3d011682016040523d82523d5f602084013e6109d3565b606091505b5050905080610a1a5760405162461bcd60e51b8152602060048201526013602482015272199959481d1c985b9cd9995c8819985a5b1959606a1b6044820152606401610582565b86546040515f916001600160a01b03169084908381818185875af1925050503d805f8114610a63576040519150601f19603f3d011682016040523d82523d5f602084013e610a68565b606091505b5050905080610ab25760405162461bcd60e51b81526020600482015260166024820152751cd95b1b195c881d1c985b9cd9995c8819985a5b195960521b6044820152606401610582565b600188015460028901546040516323b872dd60e01b81526001600160a01b03909216916323b872dd91610aeb9130918a91600401611879565b5f604051808303815f87803b158015610b02575f80fd5b505af1158015610b14573d5f803e3d5ffd5b50505050846001600160a01b0316336001600160a01b03168a7fe6d56779a392535d3a591e92b65ba36f2ecc424bbf5220d0176a7da29385b50489604051610b5e91815260200190565b60405180910390a45050505050505050610b8460015f8051602061196583398151915255565b50565b610b8f6115f2565b5f818152600360205260409020600581015460ff16610bc05760405162461bcd60e51b8152600401610582906118ca565b80546001600160a01b03163314610c065760405162461bcd60e51b815260206004820152600a6024820152693737ba1039b2b63632b960b11b6044820152606401610582565b610c0f8261160d565b6005808201805460ff19169055335f90815260209190915260408120805460019290610c3c9084906118f4565b9091555050600181015460028201546040516323b872dd60e01b81526001600160a01b03909216916323b872dd91610c7a9130913391600401611879565b5f604051808303815f87803b158015610c91575f80fd5b505af1158015610ca3573d5f803e3d5ffd5b50506040513392508491507f8e25282255ab31897df2b0456bb993ac7f84d376861aefd84901d2d63a7428a2905f90a350610b8460015f8051602061196583398151915255565b610cf26115f2565b5f828152600360205260409020600581015460ff16610d235760405162461bcd60e51b8152600401610582906118ca565b5f3411610d605760405162461bcd60e51b815260206004820152600b60248201526a626964206973207a65726f60a81b6044820152606401610582565b428267ffffffffffffffff1611610da75760405162461bcd60e51b815260206004820152600b60248201526a195e1c1a5c995908189a5960aa1b6044820152606401610582565b5f83815260046020526040902060018101543411610df55760405162461bcd60e51b815260206004820152600b60248201526a62696420746f6f206c6f7760a81b6044820152606401610582565b6002810154600160401b900460ff1615610eac5780546001600160a01b03165f908152600660205260408120805460019290610e329084906118f4565b9091555050805460018201546040515f926001600160a01b031691908381818185875af1925050503d805f8114610e84576040519150601f19603f3d011682016040523d82523d5f602084013e610e89565b606091505b5050905080610eaa5760405162461bcd60e51b81526004016105829061193d565b505b604080516080810182523380825234602080840191825267ffffffffffffffff8089168587019081526001606087018181525f8d815260048652898120985189546001600160a01b03919091166001600160a01b031990911617895595518883015591516002909701805492511515600160401b0268ffffffffffffffffff1990931697909316969096171790559181526006909152918220805491929091610f569084906118b1565b90915550506040805134815267ffffffffffffffff85166020820152339186917f26a2b73a513b1d1101f625ffcf044dc275db949592e58b12a18b3bf6fe55e4f3910160405180910390a35050610fb960015f8051602061196583398151915255565b5050565b610fc56116f2565b6103e861ffff8216111561100a5760405162461bcd60e51b815260206004820152600c60248201526b0cccaca40e8dede40d0d2ced60a31b6044820152606401610582565b6002805461ffff83811661ffff1983168117909355604080519190921680825260208201939093527f84e4fe32bf74c4011a7e1fde79c63acdffaf92a0112cde153e7b0abee665bc6b910160405180910390a15050565b6110696116f2565b6110725f61171e565b565b61107c6115f2565b5f8181526004602052604090206002810154600160401b900460ff166110d45760405162461bcd60e51b815260206004820152600d60248201526c1b9bc81858dd1a5d9948189a59609a1b6044820152606401610582565b80546001600160a01b0316331461111a5760405162461bcd60e51b815260206004820152600a6024820152693737ba103134b23232b960b11b6044820152606401610582565b6001808201805460028401805460ff60401b191690555f91829055338252600660205260408220805491939290916111539084906118f4565b90915550506040515f90339083908381818185875af1925050503d805f8114611197576040519150601f19603f3d011682016040523d82523d5f602084013e61119c565b606091505b50509050806111bd5760405162461bcd60e51b81526004016105829061193d565b604051339085907f529d3bdff5de00724e674a22c5cc88aeca2e6496bf02e3369a4e43a7171be052905f90a3505050610b8460015f8051602061196583398151915255565b61120a6115f2565b5f818152600360205260409020600581015460ff1661123b5760405162461bcd60e51b8152600401610582906118ca565b8060040154341461127a5760405162461bcd60e51b81526020600482015260096024820152686261642076616c756560b81b6044820152606401610582565b6112838261160d565b6005808201805460ff1916905581546001600160a01b03165f908152602091909152604081208054600192906112ba9084906118f4565b9091555050335f9081526007602052604081208054600192906112de9084906118b1565b90915550506002545f90612710906112fa9061ffff1634611907565b611304919061191e565b90505f61131182346118f4565b90505f60028054906101000a90046001600160a01b03166001600160a01b0316836040515f6040518083038185875af1925050503d805f811461136f576040519150601f19603f3d011682016040523d82523d5f602084013e611374565b606091505b50509050806113bb5760405162461bcd60e51b8152602060048201526013602482015272199959481d1c985b9cd9995c8819985a5b1959606a1b6044820152606401610582565b83546040515f916001600160a01b03169084908381818185875af1925050503d805f8114611404576040519150601f19603f3d011682016040523d82523d5f602084013e611409565b606091505b50509050806114535760405162461bcd60e51b81526020600482015260166024820152751cd95b1b195c881d1c985b9cd9995c8819985a5b195960521b6044820152606401610582565b600185015460028601546040516323b872dd60e01b81526001600160a01b03909216916323b872dd9161148c9130913391600401611879565b5f604051808303815f87803b1580156114a3575f80fd5b505af11580156114b5573d5f803e3d5ffd5b50506040513481523392508891507f353f76da30e3999180c686b8fab4aa0ef83daa7cfa7326158d5283490dda598f9060200160405180910390a35050505050610b8460015f8051602061196583398151915255565b6115136116f2565b6001600160a01b03811661155d5760405162461bcd60e51b8152602060048201526011602482015270726563697069656e74206973207a65726f60781b6044820152606401610582565b600280546001600160a01b038381166201000081810262010000600160b01b031985161790945560405193909204169182907faaebcf1bfa00580e41d966056b48521fa9f202645c86d4ddf28113e617c1b1d3905f90a35050565b6115c06116f2565b6001600160a01b0381166115e957604051631e4fbdf760e01b81525f6004820152602401610582565b610b848161171e565b6115fa61176d565b60025f8051602061196583398151915255565b5f8181526004602052604090206002810154600160401b900460ff16611631575050565b80546001808301805460028501805460ff60401b191690555f918290556001600160a01b0390931680825260066020526040822080549194939290916116789084906118f4565b90915550506040515f906001600160a01b0384169083908381818185875af1925050503d805f81146116c5576040519150601f19603f3d011682016040523d82523d5f602084013e6116ca565b606091505b50509050806116eb5760405162461bcd60e51b81526004016105829061193d565b5050505050565b5f546001600160a01b031633146110725760405163118cdaa760e01b8152336004820152602401610582565b5f80546001600160a01b038381166001600160a01b0319831681178455604051919092169283917f8be0079c531659141344cd1fd0a4f28419497f9722a3daafe3b4186f6b6457e09190a35050565b5f805160206119658339815191525460020361107257604051633ee5aeb560e01b815260040160405180910390fd5b5f602082840312156117ac575f80fd5b5035919050565b80356001600160a01b03811681146117c9575f80fd5b919050565b5f805f606084860312156117e0575f80fd5b6117e9846117b3565b95602085013595506040909401359392505050565b5f6020828403121561180e575f80fd5b611817826117b3565b9392505050565b5f806040838503121561182f575f80fd5b82359150602083013567ffffffffffffffff8116811461184d575f80fd5b809150509250929050565b5f60208284031215611868575f80fd5b813561ffff81168114611817575f80fd5b6001600160a01b039384168152919092166020820152604081019190915260600190565b634e487b7160e01b5f52601160045260245ffd5b808201808211156118c4576118c461189d565b92915050565b60208082526010908201526f6c697374696e6720696e61637469766560801b604082015260600190565b818103818111156118c4576118c461189d565b80820281158282048414176118c4576118c461189d565b5f8261193857634e487b7160e01b5f52601260045260245ffd5b500490565b6020808252600d908201526c1c99599d5b990819985a5b1959609a1b60408201526060019056fe9b779b17422d0df92223018b32b4d1fa46e071723d6817e2486d003becc55f00a264697066735822122074c6b94149096090398f14b1e6ac68a85062213d36a73b4f6a2c1e677d30f91764736f6c634300081a0033",
  "linkReferences": {},
  "deployedLinkReferences": {},
  "immutableReferences": {},
  "inputSourceName": "project/src/GenesoMarketplace.sol",
  "buildInfoId": "solc-0_8_26-1fbe085e6ddf664deaff3174d05ffa9128c95ec4"
}