{"project/src/GenesoMarketplace.sol":{"GenesoMarketplace":{"abi":[{"inputs":[{"internalType":"address","name":"initialOwner","type":"address"},{"internalType":"address","name":"initialFeeRecipient","type":"address"},{"internalType":"uint16","name":"initialFeeBps","type":"uint16"}],"stateMutability":"nonpayable","type":"constructor"},{"inputs":[{"internalType":"address","name":"owner","type":"address"}],"name":"OwnableInvalidOwner","type":"error"},{"inputs":[{"internalType":"address","name":"account","type":"address"}],"name":"OwnableUnauthorizedAccount","type":"error"},{"inputs":[],"name":"ReentrancyGuardReentrantCall","type":"error"},{"anonymous":false,"inputs":[{"indexed":true,"internalType":"uint256","name":"listingId","type":"uint256"},{"indexed":true,"internalType":"address","name":"seller","type":"address"},{"indexed":true,"internalType":"address","name":"bidder","type":"address"},{"indexed":false,"internalType":"uint256","name":"amount","type":"uint256"}],"name":"BidAccepted","type":"event"},{"anonymous":false,"inputs":[{"indexed":true,"internalType":"uint256","name":"listingId","type":"uint256"},{"indexed":true,"internalType":"address","name":"bidder","type":"address"}],"name":"BidCancelled","type":"event"},{"anonymous":false,"inputs":[{"indexed":true,"internalType":"uint256","name":"listingId","type":"uint256"},{"indexed":true,"internalType":"address","name":"bidder","type":"address"},{"indexed":false,"internalType":"uint256","name":"amount","type":"uint256"},{"indexed":false,"internalType":"uint64","name":"expiresAt","type":"uint64"}],"name":"BidPlaced","type":"event"},{"anonymous":false,"inputs":[{"indexed":true,"internalType":"address","name":"oldRecipient","type":"address"},{"indexed":true,"internalType":"address","name":"newRecipient","type":"address"}],"name":"FeeRecipientUpdated","type":"event"},{"anonymous":false,"inputs":[{"indexed":true,"internalType":"uint256","name":"listingId","type":"uint256"},{"indexed":true,"internalType":"address","name":"buyer","type":"address"},{"indexed":false,"internalType":"uint256","name":"amount","type":"uint256"}],"name":"ListingBought","type":"event"},{"anonymous":false,"inputs":[{"indexed":true,"internalType":"uint256","name":"listingId","type":"uint256"},{"indexed":true,"internalType":"address","name":"seller","type":"address"}],"name":"ListingCancelled","type":"event"},{"anonymous":false,"inputs":[{"indexed":true,"internalType":"uint256","name":"listingId","type":"uint256"},{"indexed":true,"internalType":"address","name":"seller","type":"address"},{"indexed":true,"internalType":"address","name":"nft","type":"address"},{"indexed":false,"internalType":"uint256","name":"tokenId","type":"uint256"},{"indexed":false,"internalType":"uint256","name":"price","type":"uint256"}],"name":"ListingCreated","type":"event"},{"anonymous":false,"inputs":[{"indexed":true,"internalType":"address","name":"previousOwner","type":"address"},{"indexed":true,"internalType":"address","name":"newOwner","type":"address"}],"name":"OwnershipTransferred","type":"event"},{"anonymous":false,"inputs":[{"indexed":false,"internalType":"uint16","name":"oldFeeBps","type":"uint16"},{"indexed":false,"internalType":"uint16","name":"newFeeBps","type":"uint16"}],"name":"PlatformFeeUpdated","type":"event"},{"inputs":[],"name":"MAX_FEE_BPS","outputs":[{"internalType":"uint16","name":"","type":"uint16"}],"stateMutability":"view","type":"function"},{"inputs":[{"internalType":"uint256","name":"listingId","type":"uint256"}],"name":"acceptBid","outputs":[],"stateMutability":"nonpayable","type":"function"},{"inputs":[{"internalType":"uint256","name":"listingId","type":"uint256"}],"name":"buy","outputs":[],"stateMutability":"payable","type":"function"},{"inputs":[{"internalType":"uint256","name":"listingId","type":"uint256"}],"name":"cancelBid","outputs":[],"stateMutability":"nonpayable","type":"function"},{"inputs":[{"internalType":"uint256","name":"listingId","type":"uint256"}],"name":"cancelListing","outputs":[],"stateMutability":"nonpayable","type":"function"},{"inputs":[{"internalType":"address","name":"nft","type":"address"},{"internalType":"uint256","name":"tokenId","type":"uint256"},{"internalType":"uint256","name":"price","type":"uint256"}],"name":"createListing","outputs":[],"stateMutability":"nonpayable","type":"function"},{"inputs":[],"name":"feeRecipient","outputs":[{"internalType":"address","name":"","type":"address"}],"stateMutability":"view","type":"function"},{"inputs":[{"internalType":"uint256","name":"listingId","type":"uint256"}],"name":"getHighestBid","outputs":[{"components":[{"internalType":"address","name":"bidder","type":"address"},{"internalType":"uint256","name":"amount","type":"uint256"},{"internalType":"uint64","name":"expiresAt","type":"uint64"},{"internalType":"bool","name":"active","type":"bool"}],"internalType":"struct GenesoMarketplace.Bid","name":"","type":"tuple"}],"stateMutability":"view","type":"function"},{"inputs":[{"internalType":"uint256","name":"listingId","type":"uint256"}],"name":"getListing","outputs":[{"components":[{"internalType":"address","name":"seller","type":"address"},{"internalType":"address","name":"nft","type":"address"},{"internalType":"uint256","name":"tokenId","type":"uint256"},{"internalType":"address","name":"paymentToken","type":"address"},{"internalType":"uint256","name":"price","type":"uint256"},{"internalType":"bool","name":"active","type":"bool"}],"internalType":"struct GenesoMarketplace.Listing","name":"","type":"tuple"}],"stateMutability":"view","type":"function"},{"inputs":[{"internalType":"address","name":"user","type":"address"}],"name":"getUserStats","outputs":[{"internalType":"uint256","name":"activeListings","type":"uint256"},{"internalType":"uint256","name":"activeBids","type":"uint256"},{"internalType":"uint256","name":"purchases","type":"uint256"}],"stateMutability":"view","type":"function"},{"inputs":[],"name":"owner","outputs":[{"internalType":"address","name":"","type":"address"}],"stateMutability":"view","type":"function"},{"inputs":[{"internalType":"uint256","name":"listingId","type":"uint256"},{"internalType":"uint64","name":"expiresAt","type":"uint64"}],"name":"placeBid","outputs":[],"stateMutability":"payable","type":"function"},{"inputs":[],"name":"platformFeeBps","outputs":[{"internalType":"uint16","name":"","type":"uint16"}],"stateMutability":"view","type":"function"},{"inputs":[],"name":"renounceOwnership","outputs":[],"stateMutability":"nonpayable","type":"function"},{"inputs":[{"internalType":"address","name":"newRecipient","type":"address"}],"name":"setFeeRecipient","outputs":[],"stateMutability":"nonpayable","type":"function"},{"inputs":[{"internalType":"uint16","name":"newFeeBps","type":"uint16"}],"name":"setPlatformFee","outputs":[],"stateMutability":"nonpayable","type":"function"},{"inputs":[],"name":"totalListings","outputs":[{"internalType":"uint256","name":"","type":"uint256"}],"stateMutability":"view","type":"function"},{"inputs":[{"internalType":"address","name":"newOwner","type":"address"}],"name":"transferOwnership","outputs":[],"stateMutability":"nonpayable","type":"function"}],"evm":{"bytecode":{"linkReferences":{},"object":"608060405234801561000f575f80fd5b50604051611bdc380380611bdc83398101604081905261002e916101cb565b826001600160a01b03811661005d57604051631e4fbdf760e01b81525f60048201526024015b60405180910390fd5b61006681610161565b5060017f9b779b17422d0df92223018b32b4d1fa46e071723d6817e2486d003becc55f00556001600160a01b0382166100e15760405162461bcd60e51b815260206004820152601560248201527f66656520726563697069656e74206973207a65726f00000000000000000000006044820152606401610054565b6103e861ffff821611156101265760405162461bcd60e51b815260206004820152600c60248201526b0cccaca40e8dede40d0d2ced60a31b6044820152606401610054565b600280546001600160b01b031916620100006001600160a01b03949094169390930261ffff19169290921761ffff9190911617905550610215565b5f80546001600160a01b038381166001600160a01b0319831681178455604051919092169283917f8be0079c531659141344cd1fd0a4f28419497f9722a3daafe3b4186f6b6457e09190a35050565b80516001600160a01b03811681146101c6575f80fd5b919050565b5f805f606084860312156101dd575f80fd5b6101e6846101b0565b92506101f4602085016101b0565b9150604084015161ffff8116811461020a575f80fd5b809150509250925092565b6119ba806102225f395ff3fe608060405260043610610105575f3560e01c8063715018a611610092578063c78b616c11610062578063c78b616c146104b1578063d55be8c6146104d4578063d96a094a146104e9578063e74b981b146104fc578063f2fde38b1461051b575f80fd5b8063715018a61461037f5780638da5cb5b146103935780638f288644146103af5780639703ef3514610492575f80fd5b8063305a67a8116100d8578063305a67a81461028b57806346904840146102aa5780634e43603a146102e757806356aa18941461034d5780635cbc742c14610360575f80fd5b8063107a274a1461010957806322dcd13e1461021e57806324780c561461024b5780632b1fd58a1461026c575b5f80fd5b348015610114575f80fd5b506101bc61012336600461179c565b6040805160c0810182525f80825260208201819052918101829052606081018290526080810182905260a0810191909152505f90815260036020818152604092839020835160c08101855281546001600160a01b039081168252600183015481169382019390935260028201549481019490945291820154166060830152600481015460808301526005015460ff16151560a082015290565b604051610215919081516001600160a01b03908116825260208084015182169083015260408084015190830152606080840151909116908201526080808301519082015260a09182015115159181019190915260c00190565b60405180910390f35b348015610229575f80fd5b506002546102389061ffff1681565b60405161ffff9091168152602001610215565b348015610256575f80fd5b5061026a6102653660046117ce565b61053a565b005b348015610277575f80fd5b5061026a61028636600461179c565b610771565b348015610296575f80fd5b5061026a6102a536600461179c565b610b87565b3480156102b5575f80fd5b506002546102cf906201000090046001600160a01b031681565b6040516001600160a01b039091168152602001610215565b3480156102f2575f80fd5b506103326103013660046117fe565b6001600160a01b03165f90815260056020908152604080832054600683528184205460079093529220549192909190565b60408051938452602084019290925290820152606001610215565b61026a61035b36600461181e565b610cea565b34801561036b575f80fd5b5061026a61037a366004611858565b610fbd565b34801561038a575f80fd5b5061026a611061565b34801561039e575f80fd5b505f546001600160a01b03166102cf565b3480156103ba575f80fd5b5061044a6103c936600461179c565b604080516080810182525f808252602082018190529181018290526060810191909152505f90815260046020908152604091829020825160808101845281546001600160a01b031681526001820154928101929092526002015467ffffffffffffffff811692820192909252600160401b90910460ff161515606082015290565b604051610215919081516001600160a01b031681526020808301519082015260408083015167ffffffffffffffff169082015260609182015115159181019190915260800190565b34801561049d575f80fd5b5061026a6104ac36600461179c565b611074565b3480156104bc575f80fd5b506104c660015481565b604051908152602001610215565b3480156104df575f80fd5b506102386103e881565b61026a6104f736600461179c565b611202565b348015610507575f80fd5b5061026a6105163660046117fe565b61150b565b348015610526575f80fd5b5061026a6105353660046117fe565b6115b8565b6105426115f2565b6001600160a01b03831661058b5760405162461bcd60e51b815260206004820152600b60248201526a6e6674206973207a65726f60a81b60448201526064015b60405180910390fd5b5f81116105ca5760405162461bcd60e51b815260206004820152600d60248201526c7072696365206973207a65726f60981b6044820152606401610582565b6040516323b872dd60e01b81526001600160a01b038416906323b872dd906105fa90339030908790600401611879565b5f604051808303815f87803b158015610611575f80fd5b505af1158015610623573d5f803e3d5ffd5b505050506001805f82825461063891906118b1565b90915550506040805160c081018252338082526001600160a01b0386811660208085019182528486018881525f60608701818152608088018a8152600160a08a018181528154855260038088528c86209b518c546001600160a01b0319908116918c16919091178d5598518c840180548b16918c16919091179055955160028c01559251948a01805490971694909716939093179094559051600487015591516005958601805460ff19169115159190911790559281529290915291812080549091906107069084906118b1565b909155505060015460408051848152602081018490526001600160a01b03861692339290917f508c75a3cb42c068e54cf9e0b738921b4e2375725c5965ef4a110475606fc05a910160405180910390a461076c60015f8051602061196583398151915255565b505050565b6107796115f2565b5f818152600360205260409020600581015460ff166107aa5760405162461bcd60e51b8152600401610582906118ca565b80546001600160a01b031633146107f05760405162461bcd60e51b815260206004820152600a6024820152693737ba1039b2b63632b960b11b6044820152606401610582565b5f8281526004602052604090206002810154600160401b900460ff166108485760405162461bcd60e51b815260206004820152600d60248201526c1b9bc81858dd1a5d9948189a59609a1b6044820152606401610582565b60028101544267ffffffffffffffff90911610156108965760405162461bcd60e51b815260206004820152600b60248201526a189a5908195e1c1a5c995960aa1b6044820152606401610582565b60018082018054835460028501805460ff60401b191690555f928390556001600160a01b031680835260066020526040832080549294919391929091906108de9084906118f4565b90915550506005808501805460ff19169055335f908152602091909152604081208054600192906109109084906118f4565b90915550506001600160a01b0381165f90815260076020526040812080546001929061093d9084906118b1565b90915550506002545f90612710906109599061ffff1685611907565b610963919061191e565b90505f61097082856118f4565b90505f60028054906101000a90046001600160a01b03166001600160a01b0316836040515f6040518083038185875af1925050503d805f81146109ce576040519150601f19603f3d011682016040523d82523d5f602084013e6109d3565b606091505b5050905080610a1a5760405162461bcd60e51b8152602060048201526013602482015272199959481d1c985b9cd9995c8819985a5b1959606a1b6044820152606401610582565b86546040515f916001600160a01b03169084908381818185875af1925050503d805f8114610a63576040519150601f19603f3d011682016040523d82523d5f602084013e610a68565b606091505b5050905080610ab25760405162461bcd60e51b81526020600482015260166024820152751cd95b1b195c881d1c985b9cd9995c8819985a5b195960521b6044820152606401610582565b600188015460028901546040516323b872dd60e01b81526001600160a01b03909216916323b872dd91610aeb9130918a91600401611879565b5f604051808303815f87803b158015610b02575f80fd5b505af1158015610b14573d5f803e3d5ffd5b50505050846001600160a01b0316336001600160a01b03168a7fe6d56779a392535d3a591e92b65ba36f2ecc424bbf5220d0176a7da29385b50489604051610b5e91815260200190565b60405180910390a45050505050505050610b8460015f8051602061196583398151915255565b50565b610b8f6115f2565b5f818152600360205260409020600581015460ff16610bc05760405162461bcd60e51b8152600401610582906118ca565b80546001600160a01b03163314610c065760405162461bcd60e51b815260206004820152600a6024820152693737ba1039b2b63632b960b11b6044820152606401610582565b610c0f8261160d565b6005808201805460ff19169055335f90815260209190915260408120805460019290610c3c9084906118f4565b9091555050600181015460028201546040516323b872dd60e01b81526001600160a01b03909216916323b872dd91610c7a9130913391600401611879565b5f604051808303815f87803b158015610c91575f80fd5b505af1158015610ca3573d5f803e3d5ffd5b50506040513392508491507f8e25282255ab31897df2b0456bb993ac7f84d376861aefd84901d2d63a7428a2905f90a350610b8460015f8051602061196583398151915255565b610cf26115f2565b5f828152600360205260409020600581015460ff16610d235760405162461bcd60e51b8152600401610582906118ca565b5f3411610d605760405162461bcd60e51b815260206004820152600b60248201526a626964206973207a65726f60a81b6044820152606401610582565b428267ffffffffffffffff1611610da75760405162461bcd60e51b815260206004820152600b60248201526a195e1c1a5c995908189a5960aa1b6044820152606401610582565b5f83815260046020526040902060018101543411610df55760405162461bcd60e51b815260206004820152600b60248201526a62696420746f6f206c6f7760a81b6044820152606401610582565b6002810154600160401b900460ff1615610eac5780546001600160a01b03165f908152600660205260408120805460019290610e329084906118f4565b9091555050805460018201546040515f926001600160a01b031691908381818185875af1925050503d805f8114610e84576040519150601f19603f3d011682016040523d82523d5f602084013e610e89565b606091505b5050905080610eaa5760405162461bcd60e51b81526004016105829061193d565b505b604080516080810182523380825234602080840191825267ffffffffffffffff8089168587019081526001606087018181525f8d815260048652898120985189546001600160a01b03919091166001600160a01b031990911617895595518883015591516002909701805492511515600160401b0268ffffffffffffffffff1990931697909316969096171790559181526006909152918220805491929091610f569084906118b1565b90915550506040805134815267ffffffffffffffff85166020820152339186917f26a2b73a513b1d1101f625ffcf044dc275db949592e58b12a18b3bf6fe55e4f3910160405180910390a35050610fb960015f8051602061196583398151915255565b5050565b610fc56116f2565b6103e861ffff8216111561100a5760405162461bcd60e51b815260206004820152600c60248201526b0cccaca40e8dede40d0d2ced60a31b6044820152606401610582565b6002805461ffff83811661ffff1983168117909355604080519190921680825260208201939093527f84e4fe32bf74c4011a7e1fde79c63acdffaf92a0112cde153e7b0abee665bc6b910160405180910390a15050565b6110696116f2565b6110725f61171e565b565b61107c6115f2565b5f8181526004602052604090206002810154600160401b900460ff166110d45760405162461bcd60e51b815260206004820152600d60248201526c1b9bc81858dd1a5d9948189a59609a1b6044820152606401610582565b80546001600160a01b0316331461111a5760405162461bcd60e51b815260206004820152600a6024820152693737ba103134b23232b960b11b6044820152606401610582565b6001808201805460028401805460ff60401b191690555f91829055338252600660205260408220805491939290916111539084906118f4565b90915550506040515f90339083908381818185875af1925050503d805f8114611197576040519150601f19603f3d011682016040523d82523d5f602084013e61119c565b606091505b50509050806111bd5760405162461bcd60e51b81526004016105829061193d565b604051339085907f529d3bdff5de00724e674a22c5cc88aeca2e6496bf02e3369a4e43a7171be052905f90a3505050610b8460015f8051602061196583398151915255565b61120a6115f2565b5f818152600360205260409020600581015460ff1661123b5760405162461bcd60e51b8152600401610582906118ca565b8060040154341461127a5760405162461bcd60e51b81526020600482015260096024820152686261642076616c756560b81b6044820152606401610582565b6112838261160d565b6005808201805460ff1916905581546001600160a01b03165f908152602091909152604081208054600192906112ba9084906118f4565b9091555050335f9081526007602052604081208054600192906112de9084906118b1565b90915550506002545f90612710906112fa9061ffff1634611907565b611304919061191e565b90505f61131182346118f4565b90505f60028054906101000a90046001600160a01b03166001600160a01b0316836040515f6040518083038185875af1925050503d805f811461136f576040519150601f19603f3d011682016040523d82523d5f602084013e611374565b606091505b50509050806113bb5760405162461bcd60e51b8152602060048201526013602482015272199959481d1c985b9cd9995c8819985a5b1959606a1b6044820152606401610582565b83546040515f916001600160a01b03169084908381818185875af1925050503d805f8114611404576040519150601f19603f3d011682016040523d82523d5f602084013e611409565b606091505b50509050806114535760405162461bcd60e51b81526020600482015260166024820152751cd95b1b195c881d1c985b9cd9995c8819985a5b195960521b6044820152606401610582565b600185015460028601546040516323b872dd60e01b81526001600160a01b03909216916323b872dd9161148c9130913391600401611879565b5f604051808303815f87803b1580156114a3575f80fd5b505af11580156114b5573d5f803e3d5ffd5b50506040513481523392508891507f353f76da30e3999180c686b8fab4aa0ef83daa7cfa7326158d5283490dda598f9060200160405180910390a35050505050610b8460015f8051602061196583398151915255565b6115136116f2565b6001600160a01b03811661155d5760405162461bcd60e51b8152602060048201526011602482015270726563697069656e74206973207a65726f60781b6044820152606401610582565b600280546001600160a01b038381166201000081810262010000600160b01b031985161790945560405193909204169182907faaebcf1bfa00580e41d966056b48521fa9f202645c86d4ddf28113e617c1b1d3905f90a35050565b6115c06116f2565b6001600160a01b0381166115e957604051631e4fbdf760e01b81525f6004820152602401610582565b610b848161171e565b6115fa61176d565b60025f8051602061196583398151915255565b5f8181526004602052604090206002810154600160401b900460ff16611631575050565b80546001808301805460028501805460ff60401b191690555f918290556001600160a01b0390931680825260066020526040822080549194939290916116789084906118f4565b90915550506040515f906001600160a01b0384169083908381818185875af1925050503d805f81146116c5576040519150601f19603f3d011682016040523d82523d5f602084013e6116ca565b606091505b50509050806116eb5760405162461bcd60e51b81526004016105829061193d565b5050505050565b5f546001600160a01b031633146110725760405163118cdaa760e01b8152336004820152602401610582565b5f80546001600160a01b038381166001600160a01b0319831681178455604051919092169283917f8be0079c531659141344cd1fd0a4f28419497f9722a3daafe3b4186f6b6457e09190a35050565b5f805160206119658339815191525460020361107257604051633ee5aeb560e01b815260040160405180910390fd5b5f602082840312156117ac575f80fd5b5035919050565b80356001600160a01b03811681146117c9575f80fd5b919050565b5f805f606084860312156117e0575f80fd5b6117e9846117b3565b95602085013595506040909401359392505050565b5f6020828403121561180e575f80fd5b611817826117b3565b9392505050565b5f806040838503121561182f575f80fd5b82359150602083013567ffffffffffffffff8116811461184d575f80fd5b809150509250929050565b5f60208284031215611868575f80fd5b813561ffff81168114611817575f80fd5b6001600160a01b039384168152919092166020820152604081019190915260600190565b634e487b7160e01b5f52601160045260245ffd5b808201808211156118c4576118c461189d565b92915050565b60208082526010908201526f6c697374696e6720696e61637469766560801b604082015260600190565b818103818111156118c4576118c461189d565b80820281158282048414176118c4576118c461189d565b5f8261193857634e487b7160e01b5f52601260045260245ffd5b500490565b6020808252600d908201526c1c99599d5b990819985a5b1959609a1b60408201526060019056fe9b779b17422d0df92223018b32b4d1fa46e071723d6817e2486d003becc55f00a264697066735822122074c6b94149096090398f14b1e6ac68a85062213d36a73b4f6a2c1e677d30f91764736f6c634300081a0033","opcodes":"PUSH1 0x80 PUSH1 0x40 MSTORE CALLVALUE DUP1 ISZERO PUSH2 0xF JUMPI PUSH0 DUP1 REVERT JUMPDEST POP PUSH1 0x40 MLOAD PUSH2 0x1BDC CODESIZE SUB DUP1 PUSH2 0x1BDC DUP4 CODECOPY DUP2 ADD PUSH1 0x40 DUP2 SWAP1 MSTORE PUSH2 0x2E SWAP2 PUSH2 0x1CB JUMP JUMPDEST DUP3 PUSH1 0x1 PUSH1 0x1 PUSH1 0xA0 SHL SUB DUP2 AND PUSH2 0x5D JUMPI PUSH1 0x40 MLOAD PUSH4 0x1E4FBDF7 PUSH1 0xE0 SHL DUP2 MSTORE PUSH0 PUSH1 0x4 DUP3 ADD MSTORE PUSH1 0x24 ADD JUMPDEST PUSH1 0x40 MLOAD DUP1 SWAP2 SUB SWAP1 REVERT JUMPDEST PUSH2 0x66 DUP2 PUSH2 0x161 JUMP JUMPDEST POP PUSH1 0x1 PUSH32 0x9B779B17422D0DF92223018B32B4D1FA46E071723D6817E2486D003BECC55F00 SSTORE PUSH1 0x1 PUSH1 0x1 PUSH1 0xA0 SHL SUB DUP3 AND PUSH2 0xE1 JUMPI PUSH1 0x40 MLOAD PUSH3 0x461BCD PUSH1 0xE5 SHL DUP2 MSTORE PUSH1 0x20 PUSH1 0x4 DUP3 ADD MSTORE PUSH1 0x15 PUSH1 0x24 DUP3 ADD MSTORE PUSH32 0x66656520726563697069656E74206973207A65726F0000000000000000000000 PUSH1 0x44 DUP3 ADD MSTORE PUSH1 0x64 ADD PUSH2 0x54 JUMP JUMPDEST PUSH2 0x3E8 PUSH2 0xFFFF DUP3 AND GT ISZERO PUSH2 0x126 JUMPI PUSH1 0x40 MLOAD PUSH3 0x461BCD PUSH1 0xE5 SHL DUP2 MSTORE PUSH1 0x20 PUSH1 0x4 DUP3 ADD MSTORE PUSH1 0xC PUSH1 0x24 DUP3 ADD MSTORE PUSH12 0xCCCACA40E8DEDE40D0D2CED PUSH1 0xA3 SHL PUSH1 0x44 DUP3 ADD MSTORE PUSH1 0x64 ADD PUSH2 0x54 JUMP JUMPDEST PUSH1 0x2 DUP1 SLOAD PUSH1 0x1 PUSH1 0x1 PUSH1 0xB0 SHL SUB NOT AND PUSH3 0x10000 PUSH1 0x1 PUSH1 0x1 PUSH1 0xA0 SHL SUB SWAP5 SWAP1 SWAP5 AND SWAP4 SWAP1 SWAP4 MUL PUSH2 0xFFFF NOT AND SWAP3 SWAP1 SWAP3 OR PUSH2 0xFFFF SWAP2 SWAP1 SWAP2 AND OR SWAP1 SSTORE POP PUSH2 0x215 JUMP JUMPDEST PUSH0 DUP1 SLOAD PUSH1 0x1 PUSH1 0x1 PUSH1 0xA0 SHL SUB DUP4 DUP2 AND PUSH1 0x1 PUSH1 0x1 PUSH1 0xA0 SHL SUB NOT DUP4 AND DUP2 OR DUP5 SSTORE PUSH1 0x40 MLOAD SWAP2 SWAP1 SWAP3 AND SWAP3 DUP4 SWAP2 PUSH32 0x8BE0079C531659141344CD1FD0A4F28419497F9722A3DAAFE3B4186F6B6457E0 SWAP2 SWAP1 LOG3 POP POP JUMP JUMPDEST DUP1 MLOAD PUSH1 0x1 PUSH1 0x1 PUSH1 0xA0 SHL SUB DUP2 AND DUP2 EQ PUSH2 0x1C6 JUMPI PUSH0 DUP1 REVERT JUMPDEST SWAP2 SWAP1 POP JUMP JUMPDEST PUSH0 DUP1 PUSH0 PUSH1 0x60 DUP5 DUP7 SUB SLT ISZERO PUSH2 0x1DD JUMPI PUSH0 DUP1 REVERT JUMPDEST PUSH2 0x1E6 DUP5 PUSH2 0x1B0 JUMP JUMPDEST SWAP3 POP PUSH2 0x1F4 PUSH1 0x20 DUP6 ADD PUSH2 0x1B0 JUMP JUMPDEST SWAP2 POP PUSH1 0x40 DUP5 ADD MLOAD PUSH2 0xFFFF DUP2 AND DUP2 EQ PUSH2 0x20A JUMPI PUSH0 DUP1 REVERT JUMPDEST DUP1 SWAP2 POP POP SWAP3 POP SWAP3 POP SWAP3 JUMP JUMPDEST PUSH2 0x19BA DUP1 PUSH2 0x222 PUSH0 CODECOPY PUSH0 RETURN INVALID PUSH1 0x80 PUSH1 0x40 MSTORE PUSH1 0x4 CALLDATASIZE LT PUSH2 0x105 JUMPI PUSH0 CALLDATALOAD PUSH1 0xE0 SHR DUP1 PUSH4 0x715018A6 GT PUSH2 0x92 JUMPI DUP1 PUSH4 0xC78B616C GT PUSH2 0x62 JUMPI DUP1 PUSH4 0xC78B616C EQ PUSH2 0x4B1 JUMPI DUP1 PUSH4 0xD55BE8C6 EQ PUSH2 0x4D4 JUMPI DUP1 PUSH4 0xD96A094A EQ PUSH2 0x4E9 JUMPI DUP1 PUSH4 0xE74B981B EQ PUSH2 0x4FC JUMPI DUP1 PUSH4 0xF2FDE38B EQ PUSH2 0x51B JUMPI PUSH0 DUP1 REVERT JUMPDEST DUP1 PUSH4 0x715018A6 EQ PUSH2 0x37F JUMPI DUP1 PUSH4 0x8DA5CB5B EQ PUSH2 0x393 JUMPI DUP1 PUSH4 0x8F288644 EQ PUSH2 0x3AF JUMPI DUP1 PUSH4 0x9703EF35 EQ PUSH2 0x492 JUMPI PUSH0 DUP1 REVERT JUMPDEST DUP1 PUSH4 0x305A67A8 GT PUSH2 0xD8 JUMPI DUP1 PUSH4 0x305A67A8 EQ PUSH2 0x28B JUMPI DUP1 PUSH4 0x46904840 EQ PUSH2 0x2AA JUMPI DUP1 PUSH4 0x4E43603A EQ PUSH2 0x2E7 JUMPI DUP1 PUSH4 0x56AA1894 EQ PUSH2 0x34D JUMPI DUP1 PUSH4 0x5CBC742C EQ PUSH2 0x360 JUMPI PUSH0 DUP1 REVERT JUMPDEST DUP1 PUSH4 0x107A274A EQ PUSH2 0x109 JUMPI DUP1 PUSH4 0x22DCD13E EQ PUSH2 0x21E JUMPI DUP1 PUSH4 0x24780C56 EQ PUSH2 0x24B JUMPI DUP1 PUSH4 0x2B1FD58A EQ PUSH2 0x26C JUMPI JUMPDEST PUSH0 DUP1 REVERT JUMPDEST CALLVALUE DUP1 ISZERO PUSH2 0x114 JUMPI PUSH0 DUP1 REVERT JUMPDEST POP PUSH2 0x1BC PUSH2 0x123 CALLDATASIZE PUSH1 0x4 PUSH2 0x179C JUMP JUMPDEST PUSH1 0x40 DUP1 MLOAD PUSH1 0xC0 DUP2 ADD DUP3 MSTORE PUSH0 DUP1 DUP3 MSTORE PUSH1 0x20 DUP3 ADD DUP2 SWAP1 MSTORE SWAP2 DUP2 ADD DUP3 SWAP1 MSTORE PUSH1 0x60 DUP2 ADD DUP3 SWAP1 MSTORE PUSH1 0x80 DUP2 ADD DUP3 SWAP1 MSTORE PUSH1 0xA0 DUP2 ADD SWAP2 SWAP1 SWAP2 MSTORE POP PUSH0 SWAP1 DUP2 MSTORE PUSH1 0x3 PUSH1 0x20 DUP2 DUP2 MSTORE PUSH1 0x40 SWAP3 DUP4 SWAP1 KECCAK256 DUP4 MLOAD PUSH1 0xC0 DUP2 ADD DUP6 MSTORE DUP2 SLOAD PUSH1 0x1 PUSH1 0x1 PUSH1 0xA0 SHL SUB SWAP1 DUP2 AND DUP3 MSTORE PUSH1 0x1 DUP4 ADD SLOAD DUP2 AND SWAP4 DUP3 ADD SWAP4 SWAP1 SWAP4 MSTORE PUSH1 0x2 DUP3 ADD SLOAD SWAP5 DUP2 ADD SWAP5 SWAP1 SWAP5 MSTORE SWAP2 DUP3 ADD SLOAD AND PUSH1 0x60 DUP4 ADD MSTORE PUSH1 0x4 DUP2 ADD SLOAD PUSH1 0x80 DUP4 ADD MSTORE PUSH1 0x5 ADD SLOAD PUSH1 0xFF AND ISZERO ISZERO PUSH1 0xA0 DUP3 ADD MSTORE SWAP1 JUMP JUMPDEST PUSH1 0x40 MLOAD PUSH2 0x215 SWAP2 SWAP1 DUP2 MLOAD PUSH1 0x1 PUSH1 0x1 PUSH1 0xA0 SHL SUB SWAP1 DUP2 AND DUP3 MSTORE PUSH1 0x20 DUP1 DUP5 ADD MLOAD DUP3 AND SWAP1 DUP4 ADD MSTORE PUSH1 0x40 DUP1 DUP5 ADD MLOAD SWAP1 DUP4 ADD MSTORE PUSH1 0x60 DUP1 DUP5 ADD MLOAD SWAP1 SWAP2 AND SWAP1 DUP3 ADD MSTORE PUSH1 0x80 DUP1 DUP4 ADD MLOAD SWAP1 DUP3 ADD MSTORE PUSH1 0xA0 SWAP2 DUP3 ADD MLOAD ISZERO ISZERO SWAP2 DUP2 ADD SWAP2 SWAP1 SWAP2 MSTORE PUSH1 0xC0 ADD SWAP1 JUMP JUMPDEST PUSH1 0x40 MLOAD DUP1 SWAP2 SUB SWAP1 RETURN JUMPDEST CALLVALUE DUP1 ISZERO PUSH2 0x229 JUMPI PUSH0 DUP1 REVERT JUMPDEST POP PUSH1 0x2 SLOAD PUSH2 0x238 SWAP1 PUSH2 0xFFFF AND DUP2 JUMP JUMPDEST PUSH1 0x40 MLOAD PUSH2 0xFFFF SWAP1 SWAP2 AND DUP2 MSTORE PUSH1 0x20 ADD PUSH2 0x215 JUMP JUMPDEST CALLVALUE DUP1 ISZERO PUSH2 0x256 JUMPI PUSH0 DUP1 REVERT JUMPDEST POP PUSH2 0x26A PUSH2 0x265 CALLDATASIZE PUSH1 0x4 PUSH2 0x17CE JUMP JUMPDEST PUSH2 0x53A JUMP JUMPDEST STOP JUMPDEST CALLVALUE DUP1 ISZERO PUSH2 0x277 JUMPI PUSH0 DUP1 REVERT JUMPDEST POP PUSH2 0x26A PUSH2 0x286 CALLDATASIZE PUSH1 0x4 PUSH2 0x179C JUMP JUMPDEST PUSH2 0x771 JUMP JUMPDEST CALLVALUE DUP1 ISZERO PUSH2 0x296 JUMPI PUSH0 DUP1 REVERT JUMPDEST POP PUSH2 0x26A PUSH2 0x2A5 CALLDATASIZE PUSH1 0x4 PUSH2 0x179C JUMP JUMPDEST PUSH2 0xB87 JUMP JUMPDEST CALLVALUE DUP1 ISZERO PUSH2 0x2B5 JUMPI PUSH0 DUP1 REVERT JUMPDEST POP PUSH1 0x2 SLOAD PUSH2 0x2CF SWAP1 PUSH3 0x10000 SWAP1 DIV PUSH1 0x1 PUSH1 0x1 PUSH1 0xA0 SHL SUB AND DUP2 JUMP JUMPDEST PUSH1 0x40 MLOAD PUSH1 0x1 PUSH1 0x1 PUSH1 0xA0 SHL SUB SWAP1 SWAP2 AND DUP2 MSTORE PUSH1 0x20 ADD PUSH2 0x215 JUMP JUMPDEST CALLVALUE DUP1 ISZERO PUSH2 0x2F2 JUMPI PUSH0 DUP1 REVERT JUMPDEST POP PUSH2 0x332 PUSH2 0x301 CALLDATASIZE PUSH1 0x4 PUSH2 0x17FE JUMP JUMPDEST PUSH1 0x1 PUSH1 0x1 PUSH1 0xA0 SHL SUB AND PUSH0 SWAP1 DUP2 MSTORE PUSH1 0x5 PUSH1 0x20 SWAP1 DUP2 MSTORE PUSH1 0x40 DUP1 DUP4 KECCAK256 SLOAD PUSH1 0x6 DUP4 MSTORE DUP2 DUP5 KECCAK256 SLOAD PUSH1 0x7 SWAP1 SWAP4 MSTORE SWAP3 KECCAK256 SLOAD SWAP2 SWAP3 SWAP1 SWAP2 SWAP1 JUMP JUMPDEST PUSH1 0x40 DUP1 MLOAD SWAP4 DUP5 MSTORE PUSH1 0x20 DUP5 ADD SWAP3 SWAP1 SWAP3 MSTORE SWAP1 DUP3 ADD MSTORE PUSH1 0x60 ADD PUSH2 0x215 JUMP JUMPDEST PUSH2 0x26A PUSH2 0x35B CALLDATASIZE PUSH1 0x4 PUSH2 0x181E JUMP JUMPDEST PUSH2 0xCEA JUMP JUMPDEST CALLVALUE DUP1 ISZERO PUSH2 0x36B JUMPI PUSH0 DUP1 REVERT JUMPDEST POP PUSH2 0x26A PUSH2 0x37A CALLDATASIZE PUSH1 0x4 PUSH2 0x1858 JUMP JUMPDEST PUSH2 0xFBD JUMP JUMPDEST CALLVALUE DUP1 ISZERO PUSH2 0x38A JUMPI PUSH0 DUP1 REVERT JUMPDEST POP PUSH2 0x26A PUSH2 0x1061 JUMP JUMPDEST CALLVALUE DUP1 ISZERO PUSH2 0x39E JUMPI PUSH0 DUP1 REVERT JUMPDEST POP PUSH0 SLOAD PUSH1 0x1 PUSH1 0x1 PUSH1 0xA0 SHL SUB AND PUSH2 0x2CF JUMP JUMPDEST CALLVALUE DUP1 ISZERO PUSH2 0x3BA JUMPI PUSH0 DUP1 REVERT JUMPDEST POP PUSH2 0x44A PUSH2 0x3C9 CALLDATASIZE PUSH1 0x4 PUSH2 0x179C JUMP JUMPDEST PUSH1 0x40 DUP1 MLOAD PUSH1 0x80 DUP2 ADD DUP3 MSTORE PUSH0 DUP1 DUP3 MSTORE PUSH1 0x20 DUP3 ADD DUP2 SWAP1 MSTORE SWAP2 DUP2 ADD DUP3 SWAP1 MSTORE PUSH1 0x60 DUP2 ADD SWAP2 SWAP1 SWAP2 MSTORE POP PUSH0 SWAP1 DUP2 MSTORE PUSH1 0x4 PUSH1 0x20 SWAP1 DUP2 MSTORE PUSH1 0x40 SWAP2 DUP3 SWAP1 KECCAK256 DUP3 MLOAD PUSH1 0x80 DUP2 ADD DUP5 MSTORE DUP2 SLOAD PUSH1 0x1 PUSH1 0x1 PUSH1 0xA0 SHL SUB AND DUP2 MSTORE PUSH1 0x1 DUP3 ADD SLOAD SWAP3 DUP2 ADD SWAP3 SWAP1 SWAP3 MSTORE PUSH1 0x2 ADD SLOAD PUSH8 0xFFFFFFFFFFFFFFFF DUP2 AND SWAP3 DUP3 ADD SWAP3 SWAP1 SWAP3 MSTORE PUSH1 0x1 PUSH1 0x40 SHL SWAP1 SWAP2 DIV PUSH1 0xFF AND ISZERO ISZERO PUSH1 0x60 DUP3 ADD MSTORE SWAP1 JUMP JUMPDEST PUSH1 0x40 MLOAD PUSH2 0x215 SWAP2 SWAP1 DUP2 MLOAD PUSH1 0x1 PUSH1 0x1 PUSH1 0xA0 SHL SUB AND DUP2 MSTORE PUSH1 0x20 DUP1 DUP4 ADD MLOAD SWAP1 DUP3 ADD MSTORE PUSH1 0x40 DUP1 DUP4 ADD MLOAD PUSH8 0xFFFFFFFFFFFFFFFF AND SWAP1 DUP3 ADD MSTORE PUSH1 0x60 SWAP2 DUP3 ADD MLOAD ISZERO ISZERO SWAP2 DUP2 ADD SWAP2 SWAP1 SWAP2 MSTORE PUSH1 0x80 ADD SWAP1 JUMP JUMPDEST CALLVALUE DUP1 ISZERO PUSH2 0x49D JUMPI PUSH0 DUP1 REVERT JUMPDEST POP PUSH2 0x26A PUSH2 0x4AC CALLDATASIZE PUSH1 0x4 PUSH2 0x179C JUMP JUMPDEST PUSH2 0x1074 JUMP JUMPDEST CALLVALUE DUP1 ISZERO PUSH2 0x4BC JUMPI PUSH0 DUP1 REVERT JUMPDEST POP PUSH2 0x4C6 PUSH1 0x1 SLOAD DUP2 JUMP JUMPDEST PUSH1 0x40 MLOAD SWAP1 DUP2 MSTORE PUSH1 0x20 ADD PUSH2 0x215 JUMP JUMPDEST CALLVALUE DUP1 ISZERO PUSH2 0x4DF JUMPI PUSH0 DUP1 REVERT JUMPDEST POP PUSH2 0x238 PUSH2 0x3E8 DUP2 JUMP JUMPDEST PUSH2 0x26A PUSH2 0x4F7 CALLDATASIZE PUSH1 0x4 PUSH2 0x179C JUMP JUMPDEST PUSH2 0x1202 JUMP JUMPDEST CALLVALUE DUP1 ISZERO PUSH2 0x507 JUMPI PUSH0 DUP1 REVERT JUMPDEST POP PUSH2 0x26A PUSH2 0x516 CALLDATASIZE PUSH1 0x4 PUSH2 0x17FE JUMP JUMPDEST PUSH2 0x150B JUMP JUMPDEST CALLVALUE DUP1 ISZERO PUSH2 0x526 JUMPI PUSH0 DUP1 REVERT JUMPDEST POP PUSH2 0x26A PUSH2 0x535 CALLDATASIZE PUSH1 0x4 PUSH2 0x17FE JUMP JUMPDEST PUSH2 0x15B8 JUMP JUMPDEST PUSH2 0x542 PUSH2 0x15F2 JUMP JUMPDEST PUSH1 0x1 PUSH1 0x1 PUSH1 0xA0 SHL SUB DUP4 AND PUSH2 0x58B JUMPI PUSH1 0x40 MLOAD PUSH3 0x461BCD PUSH1 0xE5 SHL DUP2 MSTORE PUSH1 0x20 PUSH1 0x4 DUP3 ADD MSTORE PUSH1 0xB PUSH1 0x24 DUP3 ADD MSTORE PUSH11 0x6E6674206973207A65726F PUSH1 0xA8 SHL PUSH1 0x44 DUP3 ADD MSTORE PUSH1 0x64 ADD JUMPDEST PUSH1 0x40 MLOAD DUP1 SWAP2 SUB SWAP1 REVERT JUMPDEST PUSH0 DUP2 GT PUSH2 0x5CA JUMPI PUSH1 0x40 MLOAD PUSH3 0x461BCD PUSH1 0xE5 SHL DUP2 MSTORE PUSH1 0x20 PUSH1 0x4 DUP3 ADD MSTORE PUSH1 0xD PUSH1 0x24 DUP3 ADD MSTORE PUSH13 0x7072696365206973207A65726F PUSH1 0x98 SHL PUSH1 0x44 DUP3 ADD MSTORE PUSH1 0x64 ADD PUSH2 0x582 JUMP JUMPDEST PUSH1 0x40 MLOAD PUSH4 0x23B872DD PUSH1 0xE0 SHL DUP2 MSTORE PUSH1 0x1 PUSH1 0x1 PUSH1 0xA0 SHL SUB DUP5 AND SWAP1 PUSH4 0x23B872DD SWAP1 PUSH2 0x5FA SWAP1 CALLER SWAP1 ADDRESS SWAP1 DUP8 SWAP1 PUSH1 0x4 ADD PUSH2 0x1879 JUMP JUMPDEST PUSH0 PUSH1 0x40 MLOAD DUP1 DUP4 SUB DUP2 PUSH0 DUP8 DUP1 EXTCODESIZE ISZERO DUP1 ISZERO PUSH2 0x611 JUMPI PUSH0 DUP1 REVERT JUMPDEST POP GAS CALL ISZERO DUP1 ISZERO PUSH2 0x623 JUMPI RETURNDATASIZE PUSH0 DUP1 RETURNDATACOPY RETURNDATASIZE PUSH0 REVERT JUMPDEST POP POP POP POP PUSH1 0x1 DUP1 PUSH0 DUP3 DUP3 SLOAD PUSH2 0x638 SWAP2 SWAP1 PUSH2 0x18B1 JUMP JUMPDEST SWAP1 SWAP2 SSTORE POP POP PUSH1 0x40 DUP1 MLOAD PUSH1 0xC0 DUP2 ADD DUP3 MSTORE CALLER DUP1 DUP3 MSTORE PUSH1 0x1 PUSH1 0x1 PUSH1 0xA0 SHL SUB DUP7 DUP2 AND PUSH1 0x20 DUP1 DUP6 ADD SWAP2 DUP3 MSTORE DUP5 DUP7 ADD DUP9 DUP2 MSTORE PUSH0 PUSH1 0x60 DUP8 ADD DUP2 DUP2 MSTORE PUSH1 0x80 DUP9 ADD DUP11 DUP2 MSTORE PUSH1 0x1 PUSH1 0xA0 DUP11 ADD DUP2 DUP2 MSTORE DUP2 SLOAD DUP6 MSTORE PUSH1 0x3 DUP1 DUP9 MSTORE DUP13 DUP7 KECCAK256 SWAP12 MLOAD DUP13 SLOAD PUSH1 0x1 PUSH1 0x1 PUSH1 0xA0 SHL SUB NOT SWAP1 DUP2 AND SWAP2 DUP13 AND SWAP2 SWAP1 SWAP2 OR DUP14 SSTORE SWAP9 MLOAD DUP13 DUP5 ADD DUP1 SLOAD DUP12 AND SWAP2 DUP13 AND SWAP2 SWAP1 SWAP2 OR SWAP1 SSTORE SWAP6 MLOAD PUSH1 0x2 DUP13 ADD SSTORE SWAP3 MLOAD SWAP5 DUP11 ADD DUP1 SLOAD SWAP1 SWAP8 AND SWAP5 SWAP1 SWAP8 AND SWAP4 SWAP1 SWAP4 OR SWAP1 SWAP5 SSTORE SWAP1 MLOAD PUSH1 0x4 DUP8 ADD SSTORE SWAP2 MLOAD PUSH1 0x5 SWAP6 DUP7 ADD DUP1 SLOAD PUSH1 0xFF NOT AND SWAP2 ISZERO ISZERO SWAP2 SWAP1 SWAP2 OR SWAP1 SSTORE SWAP3 DUP2 MSTORE SWAP3 SWAP1 SWAP2 MSTORE SWAP2 DUP2 KECCAK256 DUP1 SLOAD SWAP1 SWAP2 SWAP1 PUSH2 0x706 SWAP1 DUP5 SWAP1 PUSH2 0x18B1 JUMP JUMPDEST SWAP1 SWAP2 SSTORE POP POP PUSH1 0x1 SLOAD PUSH1 0x40 DUP1 MLOAD DUP5 DUP2 MSTORE PUSH1 0x20 DUP2 ADD DUP5 SWAP1 MSTORE PUSH1 0x1 PUSH1 0x1 PUSH1 0xA0 SHL SUB DUP7 AND SWAP3 CALLER SWAP3 SWAP1 SWAP2 PUSH32 0x508C75A3CB42C068E54CF9E0B738921B4E2375725C5965EF4A110475606FC05A SWAP2 ADD PUSH1 0x40 MLOAD DUP1 SWAP2 SUB SWAP1 LOG4 PUSH2 0x76C PUSH1 0x1 PUSH0 DUP1 MLOAD PUSH1 0x20 PUSH2 0x1965 DUP4 CODECOPY DUP2 MLOAD SWAP2 MSTORE SSTORE JUMP JUMPDEST POP POP POP JUMP JUMPDEST PUSH2 0x779 PUSH2 0x15F2 JUMP JUMPDEST PUSH0 DUP2 DUP2 MSTORE PUSH1 0x3 PUSH1 0x20 MSTORE PUSH1 0x40 SWAP1 KECCAK256 PUSH1 0x5 DUP2 ADD SLOAD PUSH1 0xFF AND PUSH2 0x7AA JUMPI PUSH1 0x40 MLOAD PUSH3 0x461BCD PUSH1 0xE5 SHL DUP2 MSTORE PUSH1 0x4 ADD PUSH2 0x582 SWAP1 PUSH2 0x18CA JUMP JUMPDEST DUP1 SLOAD PUSH1 0x1 PUSH1 0x1 PUSH1 0xA0 SHL SUB AND CALLER EQ PUSH2 0x7F0 JUMPI PUSH1 0x40 MLOAD PUSH3 0x461BCD PUSH1 0xE5 SHL DUP2 MSTORE PUSH1 0x20 PUSH1 0x4 DUP3 ADD MSTORE PUSH1 0xA PUSH1 0x24 DUP3 ADD MSTORE PUSH10 0x3737BA1039B2B63632B9 PUSH1 0xB1 SHL PUSH1 0x44 DUP3 ADD MSTORE PUSH1 0x64 ADD PUSH2 0x582 JUMP JUMPDEST PUSH0 DUP3 DUP2 MSTORE PUSH1 0x4 PUSH1 0x20 MSTORE PUSH1 0x40 SWAP1 KECCAK256 PUSH1 0x2 DUP2 ADD SLOAD PUSH1 0x1 PUSH1 0x40 SHL SWAP1 DIV PUSH1 0xFF AND PUSH2 0x848 JUMPI PUSH1 0x40 MLOAD PUSH3 0x461BCD PUSH1 0xE5 SHL DUP2 MSTORE PUSH1 0x20 PUSH1 0x4 DUP3 ADD MSTORE PUSH1 0xD PUSH1 0x24 DUP3 ADD MSTORE PUSH13 0x1B9BC81858DD1A5D9948189A59 PUSH1 0x9A SHL PUSH1 0x44 DUP3 ADD MSTORE PUSH1 0x64 ADD PUSH2 0x582 JUMP JUMPDEST PUSH1 0x2 DUP2 ADD SLOAD TIMESTAMP PUSH8 0xFFFFFFFFFFFFFFFF SWAP1 SWAP2 AND LT ISZERO PUSH2 0x896 JUMPI PUSH1 0x40 MLOAD PUSH3 0x461BCD PUSH1 0xE5 SHL DUP2 MSTORE PUSH1 0x20 PUSH1 0x4 DUP3 ADD MSTORE PUSH1 0xB PUSH1 0x24 DUP3 ADD MSTORE PUSH11 0x189A5908195E1C1A5C9959 PUSH1 0xAA SHL PUSH1 0x44 DUP3 ADD MSTORE PUSH1 0x64 ADD PUSH2 0x582 JUMP JUMPDEST PUSH1 0x1 DUP1 DUP3 ADD DUP1 SLOAD DUP4 SLOAD PUSH1 0x2 DUP6 ADD DUP1 SLOAD PUSH1 0xFF PUSH1 0x40 SHL NOT AND SWAP1 SSTORE PUSH0 SWAP3 DUP4 SWAP1 SSTORE PUSH1 0x1 PUSH1 0x1 PUSH1 0xA0 SHL SUB AND DUP1 DUP4 MSTORE PUSH1 0x6 PUSH1 0x20 MSTORE PUSH1 0x40 DUP4 KECCAK256 DUP1 SLOAD SWAP3 SWAP5 SWAP2 SWAP4 SWAP2 SWAP3 SWAP1 SWAP2 SWAP1 PUSH2 0x8DE SWAP1 DUP5 SWAP1 PUSH2 0x18F4 JUMP JUMPDEST SWAP1 SWAP2 SSTORE POP POP PUSH1 0x5 DUP1 DUP6 ADD DUP1 SLOAD PUSH1 0xFF NOT AND SWAP1 SSTORE CALLER PUSH0 SWAP1 DUP2 MSTORE PUSH1 0x20 SWAP2 SWAP1 SWAP2 MSTORE PUSH1 0x40 DUP2 KECCAK256 DUP1 SLOAD PUSH1 0x1 SWAP3 SWAP1 PUSH2 0x910 SWAP1 DUP5 SWAP1 PUSH2 0x18F4 JUMP JUMPDEST SWAP1 SWAP2 SSTORE POP POP PUSH1 0x1 PUSH1 0x1 PUSH1 0xA0 SHL SUB DUP2 AND PUSH0 SWAP1 DUP2 MSTORE PUSH1 0x7 PUSH1 0x20 MSTORE PUSH1 0x40 DUP2 KECCAK256 DUP1 SLOAD PUSH1 0x1 SWAP3 SWAP1 PUSH2 0x93D SWAP1 DUP5 SWAP1 PUSH2 0x18B1 JUMP JUMPDEST SWAP1 SWAP2 SSTORE POP POP PUSH1 0x2 SLOAD PUSH0 SWAP1 PUSH2 0x2710 SWAP1 PUSH2 0x959 SWAP1 PUSH2 0xFFFF AND DUP6 PUSH2 0x1907 JUMP JUMPDEST PUSH2 0x963 SWAP2 SWAP1 PUSH2 0x191E JUMP JUMPDEST SWAP1 POP PUSH0 PUSH2 0x970 DUP3 DUP6 PUSH2 0x18F4 JUMP JUMPDEST SWAP1 POP PUSH0 PUSH1 0x2 DUP1 SLOAD SWAP1 PUSH2 0x100 EXP SWAP1 DIV PUSH1 0x1 PUSH1 0x1 PUSH1 0xA0 SHL SUB AND PUSH1 0x1 PUSH1 0x1 PUSH1 0xA0 SHL SUB AND DUP4 PUSH1 0x40 MLOAD PUSH0 PUSH1 0x40 MLOAD DUP1 DUP4 SUB DUP2 DUP6 DUP8 GAS CALL SWAP3 POP POP POP RETURNDATASIZE DUP1 PUSH0 DUP2 EQ PUSH2 0x9CE JUMPI PUSH1 0x40 MLOAD SWAP2 POP PUSH1 0x1F NOT PUSH1 0x3F RETURNDATASIZE ADD AND DUP3 ADD PUSH1 0x40 MSTORE RETURNDATASIZE DUP3 MSTORE RETURNDATASIZE PUSH0 PUSH1 0x20 DUP5 ADD RETURNDATACOPY PUSH2 0x9D3 JUMP JUMPDEST PUSH1 0x60 SWAP2 POP JUMPDEST POP POP SWAP1 POP DUP1 PUSH2 0xA1A JUMPI PUSH1 0x40 MLOAD PUSH3 0x461BCD PUSH1 0xE5 SHL DUP2 MSTORE PUSH1 0x20 PUSH1 0x4 DUP3 ADD MSTORE PUSH1 0x13 PUSH1 0x24 DUP3 ADD MSTORE PUSH19 0x199959481D1C985B9CD9995C8819985A5B1959 PUSH1 0x6A SHL PUSH1 0x44 DUP3 ADD MSTORE PUSH1 0x64 ADD PUSH2 0x582 JUMP JUMPDEST DUP7 SLOAD PUSH1 0x40 MLOAD PUSH0 SWAP2 PUSH1 0x1 PUSH1 0x1 PUSH1 0xA0 SHL SUB AND SWAP1 DUP5 SWAP1 DUP4 DUP2 DUP2 DUP2 DUP6 DUP8 GAS CALL SWAP3 POP POP POP RETURNDATASIZE DUP1 PUSH0 DUP2 EQ PUSH2 0xA63 JUMPI PUSH1 0x40 MLOAD SWAP2 POP PUSH1 0x1F NOT PUSH1 0x3F RETURNDATASIZE ADD AND DUP3 ADD PUSH1 0x40 MSTORE RETURNDATASIZE DUP3 MSTORE RETURNDATASIZE PUSH0 PUSH1 0x20 DUP5 ADD RETURNDATACOPY PUSH2 0xA68 JUMP JUMPDEST PUSH1 0x60 SWAP2 POP JUMPDEST POP POP SWAP1 POP DUP1 PUSH2 0xAB2 JUMPI PUSH1 0x40 MLOAD PUSH3 0x461BCD PUSH1 0xE5 SHL DUP2 MSTORE PUSH1 0x20 PUSH1 0x4 DUP3 ADD MSTORE PUSH1 0x16 PUSH1 0x24 DUP3 ADD MSTORE PUSH22 0x1CD95B1B195C881D1C985B9CD9995C8819985A5B1959 PUSH1 0x52 SHL PUSH1 0x44 DUP3 ADD MSTORE PUSH1 0x64 ADD PUSH2 0x582 JUMP JUMPDEST PUSH1 0x1 DUP9 ADD SLOAD PUSH1 0x2 DUP10 ADD SLOAD PUSH1 0x40 MLOAD PUSH4 0x23B872DD PUSH1 0xE0 SHL DUP2 MSTORE PUSH1 0x1 PUSH1 0x1 PUSH1 0xA0 SHL SUB SWAP1 SWAP3 AND SWAP2 PUSH4 0x23B872DD SWAP2 PUSH2 0xAEB SWAP2 ADDRESS SWAP2 DUP11 SWAP2 PUSH1 0x4 ADD PUSH2 0x1879 JUMP JUMPDEST PUSH0 PUSH1 0x40 MLOAD DUP1 DUP4 SUB DUP2 PUSH0 DUP8 DUP1 EXTCODESIZE ISZERO DUP1 ISZERO PUSH2 0xB02 JUMPI PUSH0 DUP1 REVERT JUMPDEST POP GAS CALL ISZERO DUP1 ISZERO PUSH2 0xB14 JUMPI RETURNDATASIZE PUSH0 DUP1 RETURNDATACOPY RETURNDATASIZE PUSH0 REVERT JUMPDEST POP POP POP POP DUP5 PUSH1 0x1 PUSH1 0x1 PUSH1 0xA0 SHL SUB AND CALLER PUSH1 0x1 PUSH1 0x1 PUSH1 0xA0 SHL SUB AND DUP11 PUSH32 0xE6D56779A392535D3A591E92B65BA36F2ECC424BBF5220D0176A7DA29385B504 DUP10 PUSH1 0x40 MLOAD PUSH2 0xB5E SWAP2 DUP2 MSTORE PUSH1 0x20 ADD SWAP1 JUMP JUMPDEST PUSH1 0x40 MLOAD DUP1 SWAP2 SUB SWAP1 LOG4 POP POP POP POP POP POP POP POP PUSH2 0xB84 PUSH1 0x1 PUSH0 DUP1 MLOAD PUSH1 0x20 PUSH2 0x1965 DUP4 CODECOPY DUP2 MLOAD SWAP2 MSTORE SSTORE JUMP JUMPDEST POP JUMP JUMPDEST PUSH2 0xB8F PUSH2 0x15F2 JUMP JUMPDEST PUSH0 DUP2 DUP2 MSTORE PUSH1 0x3 PUSH1 0x20 MSTORE PUSH1 0x40 SWAP1 KECCAK256 PUSH1 0x5 DUP2 ADD SLOAD PUSH1 0xFF AND PUSH2 0xBC0 JUMPI PUSH1 0x40 MLOAD PUSH3 0x461BCD PUSH1 0xE5 SHL DUP2 MSTORE PUSH1 0x4 ADD PUSH2 0x582 SWAP1 PUSH2 0x18CA JUMP JUMPDEST DUP1 SLOAD PUSH1 0x1 PUSH1 0x1 PUSH1 0xA0 SHL SUB AND CALLER EQ PUSH2 0xC06 JUMPI PUSH1 0x40 MLOAD PUSH3 0x461BCD PUSH1 0xE5 SHL DUP2 MSTORE PUSH1 0x20 PUSH1 0x4 DUP3 ADD MSTORE PUSH1 0xA PUSH1 0x24 DUP3 ADD MSTORE PUSH10 0x3737BA1039B2B63632B9 PUSH1 0xB1 SHL PUSH1 0x44 DUP3 ADD MSTORE PUSH1 0x64 ADD PUSH2 0x582 JUMP JUMPDEST PUSH2 0xC0F DUP3 PUSH2 0x160D JUMP JUMPDEST PUSH1 0x5 DUP1 DUP3 ADD DUP1 SLOAD PUSH1 0xFF NOT AND SWAP1 SSTORE CALLER PUSH0 SWAP1 DUP2 MSTORE PUSH1 0x20 SWAP2 SWAP1 SWAP2 MSTORE PUSH1 0x40 DUP2 KECCAK256 DUP1 SLOAD PUSH1 0x1 SWAP3 SWAP1 PUSH2 0xC3C SWAP1 DUP5 SWAP1 PUSH2 0x18F4 JUMP JUMPDEST SWAP1 SWAP2 SSTORE POP POP PUSH1 0x1 DUP2 ADD SLOAD PUSH1 0x2 DUP3 ADD SLOAD PUSH1 0x40 MLOAD PUSH4 0x23B872DD PUSH1 0xE0 SHL DUP2 MSTORE PUSH1 0x1 PUSH1 0x1 PUSH1 0xA0 SHL SUB SWAP1 SWAP3 AND SWAP2 PUSH4 0x23B872DD SWAP2 PUSH2 0xC7A SWAP2 ADDRESS SWAP2 CALLER SWAP2 PUSH1 0x4 ADD PUSH2 0x1879 JUMP JUMPDEST PUSH0 PUSH1 0x40 MLOAD DUP1 DUP4 SUB DUP2 PUSH0 DUP8 DUP1 EXTCODESIZE ISZERO DUP1 ISZERO PUSH2 0xC91 JUMPI PUSH0 DUP1 REVERT JUMPDEST POP GAS CALL ISZERO DUP1 ISZERO PUSH2 0xCA3 JUMPI RETURNDATASIZE PUSH0 DUP1 RETURNDATACOPY RETURNDATASIZE PUSH0 REVERT JUMPDEST POP POP PUSH1 0x40 MLOAD CALLER SWAP3 POP DUP5 SWAP2 POP PUSH32 0x8E25282255AB31897DF2B0456BB993AC7F84D376861AEFD84901D2D63A7428A2 SWAP1 PUSH0 SWAP1 LOG3 POP PUSH2 0xB84 PUSH1 0x1 PUSH0 DUP1 MLOAD PUSH1 0x20 PUSH2 0x1965 DUP4 CODECOPY DUP2 MLOAD SWAP2 MSTORE SSTORE JUMP JUMPDEST PUSH2 0xCF2 PUSH2 0x15F2 JUMP JUMPDEST PUSH0 DUP3 DUP2 MSTORE PUSH1 0x3 PUSH1 0x20 MSTORE PUSH1 0x40 SWAP1 KECCAK256 PUSH1 0x5 DUP2 ADD SLOAD PUSH1 0xFF AND PUSH2 0xD23 JUMPI PUSH1 0x40 MLOAD PUSH3 0x461BCD PUSH1 0xE5 SHL DUP2 MSTORE PUSH1 0x4 ADD PUSH2 0x582 SWAP1 PUSH2 0x18CA JUMP JUMPDEST PUSH0 CALLVALUE GT PUSH2 0xD60 JUMPI PUSH1 0x40 MLOAD PUSH3 0x461BCD PUSH1 0xE5 SHL DUP2 MSTORE PUSH1 0x20 PUSH1 0x4 DUP3 ADD MSTORE PUSH1 0xB PUSH1 0x24 DUP3 ADD MSTORE PUSH11 0x626964206973207A65726F PUSH1 0xA8 SHL PUSH1 0x44 DUP3 ADD MSTORE PUSH1 0x64 ADD PUSH2 0x582 JUMP JUMPDEST TIMESTAMP DUP3 PUSH8 0xFFFFFFFFFFFFFFFF AND GT PUSH2 0xDA7 JUMPI PUSH1 0x40 MLOAD PUSH3 0x461BCD PUSH1 0xE5 SHL DUP2 MSTORE PUSH1 0x20 PUSH1 0x4 DUP3 ADD MSTORE PUSH1 0xB PUSH1 0x24 DUP3 ADD MSTORE PUSH11 0x195E1C1A5C995908189A59 PUSH1 0xAA SHL PUSH1 0x44 DUP3 ADD MSTORE PUSH1 0x64 ADD PUSH2 0x582 JUMP JUMPDEST PUSH0 DUP4 DUP2 MSTORE PUSH1 0x4 PUSH1 0x20 MSTORE PUSH1 0x40 SWAP1 KECCAK256 PUSH1 0x1 DUP2 ADD SLOAD CALLVALUE GT PUSH2 0xDF5 JUMPI PUSH1 0x40 MLOAD PUSH3 0x461BCD PUSH1 0xE5 SHL DUP2 MSTORE PUSH1 0x20 PUSH1 0x4 DUP3 ADD MSTORE PUSH1 0xB PUSH1 0x24 DUP3 ADD MSTORE PUSH11 0x62696420746F6F206C6F77 PUSH1 0xA8 SHL PUSH1 0x44 DUP3 ADD MSTORE PUSH1 0x64 ADD PUSH2 0x582 JUMP JUMPDEST PUSH1 0x2 DUP2 ADD SLOAD PUSH1 0x1 PUSH1 0x40 SHL SWAP1 DIV PUSH1 0xFF AND ISZERO PUSH2 0xEAC JUMPI DUP1 SLOAD PUSH1 0x1 PUSH1 0x1 PUSH1 0xA0 SHL SUB AND PUSH0 SWAP1 DUP2 MSTORE PUSH1 0x6 PUSH1 0x20 MSTORE PUSH1 0x40 DUP2 KECCAK256 DUP1 SLOAD PUSH1 0x1 SWAP3 SWAP1 PUSH2 0xE32 SWAP1 DUP5 SWAP1 PUSH2 0x18F4 JUMP JUMPDEST SWAP1 SWAP2 SSTORE POP POP DUP1 SLOAD PUSH1 0x1 DUP3 ADD SLOAD PUSH1 0x40 MLOAD PUSH0 SWAP3 PUSH1 0x1 PUSH1 0x1 PUSH1 0xA0 SHL SUB AND SWAP2 SWAP1 DUP4 DUP2 DUP2 DUP2 DUP6 DUP8 GAS CALL SWAP3 POP POP POP RETURNDATASIZE DUP1 PUSH0 DUP2 EQ PUSH2 0xE84 JUMPI PUSH1 0x40 MLOAD SWAP2 POP PUSH1 0x1F NOT PUSH1 0x3F RETURNDATASIZE ADD AND DUP3 ADD PUSH1 0x40 MSTORE RETURNDATASIZE DUP3 MSTORE RETURNDATASIZE PUSH0 PUSH1 0x20 DUP5 ADD RETURNDATACOPY PUSH2 0xE89 JUMP JUMPDEST PUSH1 0x60 SWAP2 POP JUMPDEST POP POP SWAP1 POP DUP1 PUSH2 0xEAA JUMPI PUSH1 0x40 MLOAD PUSH3 0x461BCD PUSH1 0xE5 SHL DUP2 MSTORE PUSH1 0x4 ADD PUSH2 0x582 SWAP1 PUSH2 0x193D JUMP JUMPDEST POP JUMPDEST PUSH1 0x40 DUP1 MLOAD PUSH1 0x80 DUP2 ADD DUP3 MSTORE CALLER DUP1 DUP3 MSTORE CALLVALUE PUSH1 0x20 DUP1 DUP5 ADD SWAP2 DUP3 MSTORE PUSH8 0xFFFFFFFFFFFFFFFF DUP1 DUP10 AND DUP6 DUP8 ADD SWAP1 DUP2 MSTORE PUSH1 0x1 PUSH1 0x60 DUP8 ADD DUP2 DUP2 MSTORE PUSH0 DUP14 DUP2 MSTORE PUSH1 0x4 DUP7 MSTORE DUP10 DUP2 KECCAK256 SWAP9 MLOAD DUP10 SLOAD PUSH1 0x1 PUSH1 0x1 PUSH1 0xA0 SHL SUB SWAP2 SWAP1 SWAP2 AND PUSH1 0x1 PUSH1 0x1 PUSH1 0xA0 SHL SUB NOT SWAP1 SWAP2 AND OR DUP10 SSTORE SWAP6 MLOAD DUP9 DUP4 ADD SSTORE SWAP2 MLOAD PUSH1 0x2 SWAP1 SWAP8 ADD DUP1 SLOAD SWAP3 MLOAD ISZERO ISZERO PUSH1 0x1 PUSH1 0x40 SHL MUL PUSH9 0xFFFFFFFFFFFFFFFFFF NOT SWAP1 SWAP4 AND SWAP8 SWAP1 SWAP4 AND SWAP7 SWAP1 SWAP7 OR OR SWAP1 SSTORE SWAP2 DUP2 MSTORE PUSH1 0x6 SWAP1 SWAP2 MSTORE SWAP2 DUP3 KECCAK256 DUP1 SLOAD SWAP2 SWAP3 SWAP1 SWAP2 PUSH2 0xF56 SWAP1 DUP5 SWAP1 PUSH2 0x18B1 JUMP JUMPDEST SWAP1 SWAP2 SSTORE POP POP PUSH1 0x40 DUP1 MLOAD CALLVALUE DUP2 MSTORE PUSH8 0xFFFFFFFFFFFFFFFF DUP6 AND PUSH1 0x20 DUP3 ADD MSTORE CALLER SWAP2 DUP7 SWAP2 PUSH32 0x26A2B73A513B1D1101F625FFCF044DC275DB949592E58B12A18B3BF6FE55E4F3 SWAP2 ADD PUSH1 0x40 MLOAD DUP1 SWAP2 SUB SWAP1 LOG3 POP POP PUSH2 0xFB9 PUSH1 0x1 PUSH0 DUP1 MLOAD PUSH1 0x20 PUSH2 0x1965 DUP4 CODECOPY DUP2 MLOAD SWAP2 MSTORE SSTORE JUMP JUMPDEST POP POP JUMP JUMPDEST PUSH2 0xFC5 PUSH2 0x16F2 JUMP JUMPDEST PUSH2 0x3E8 PUSH2 0xFFFF DUP3 AND GT ISZERO PUSH2 0x100A JUMPI PUSH1 0x40 MLOAD PUSH3 0x461BCD PUSH1 0xE5 SHL DUP2 MSTORE PUSH1 0x20 PUSH1 0x4 DUP3 ADD MSTORE PUSH1 0xC PUSH1 0x24 DUP3 ADD MSTORE PUSH12 0xCCCACA40E8DEDE40D0D2CED PUSH1 0xA3 SHL PUSH1 0x44 DUP3 ADD MSTORE PUSH1 0x64 ADD PUSH2 0x582 JUMP JUMPDEST PUSH1 0x2 DUP1 SLOAD PUSH2 0xFFFF DUP4 DUP2 AND PUSH2 0xFFFF NOT DUP4 AND DUP2 OR SWAP1 SWAP4 SSTORE PUSH1 0x40 DUP1 MLOAD SWAP2 SWAP1 SWAP3 AND DUP1 DUP3 MSTORE PUSH1 0x20 DUP3 ADD SWAP4 SWAP1 SWAP4 MSTORE PUSH32 0x84E4FE32BF74C4011A7E1FDE79C63ACDFFAF92A0112CDE153E7B0ABEE665BC6B SWAP2 ADD PUSH1 0x40 MLOAD DUP1 SWAP2 SUB SWAP1 LOG1 POP POP JUMP JUMPDEST PUSH2 0x1069 PUSH2 0x16F2 JUMP JUMPDEST PUSH2 0x1072 PUSH0 PUSH2 0x171E JUMP JUMPDEST JUMP JUMPDEST PUSH2 0x107C PUSH2 0x15F2 JUMP JUMPDEST PUSH0 DUP2 DUP2 MSTORE PUSH1 0x4 PUSH1 0x20 MSTORE PUSH1 0x40 SWAP1 KECCAK256 PUSH1 0x2 DUP2 ADD SLOAD PUSH1 0x1 PUSH1 0x40 SHL SWAP1 DIV PUSH1 0xFF AND PUSH2 0x10D4 JUMPI PUSH1 0x40 MLOAD PUSH3 0x461BCD PUSH1 0xE5 SHL DUP2 MSTORE PUSH1 0x20 PUSH1 0x4 DUP3 ADD MSTORE PUSH1 0xD PUSH1 0x24 DUP3 ADD MSTORE PUSH13 0x1B9BC81858DD1A5D9948189A59 PUSH1 0x9A SHL PUSH1 0x44 DUP3 ADD MSTORE PUSH1 0x64 ADD PUSH2 0x582 JUMP JUMPDEST DUP1 SLOAD PUSH1 0x1 PUSH1 0x1 PUSH1 0xA0 SHL SUB AND CALLER EQ PUSH2 0x111A JUMPI PUSH1 0x40 MLOAD PUSH3 0x461BCD PUSH1 0xE5 SHL DUP2 MSTORE PUSH1 0x20 PUSH1 0x4 DUP3 ADD MSTORE PUSH1 0xA PUSH1 0x24 DUP3 ADD MSTORE PUSH10 0x3737BA103134B23232B9 PUSH1 0xB1 SHL PUSH1 0x44 DUP3 ADD MSTORE PUSH1 0x64 ADD PUSH2 0x582 JUMP JUMPDEST PUSH1 0x1 DUP1 DUP3 ADD DUP1 SLOAD PUSH1 0x2 DUP5 ADD DUP1 SLOAD PUSH1 0xFF PUSH1 0x40 SHL NOT AND SWAP1 SSTORE PUSH0 SWAP2 DUP3 SWAP1 SSTORE CALLER DUP3 MSTORE PUSH1 0x6 PUSH1 0x20 MSTORE PUSH1 0x40 DUP3 KECCAK256 DUP1 SLOAD SWAP2 SWAP4 SWAP3 SWAP1 SWAP2 PUSH2 0x1153 SWAP1 DUP5 SWAP1 PUSH2 0x18F4 JUMP JUMPDEST SWAP1 SWAP2 SSTORE POP POP PUSH1 0x40 MLOAD PUSH0 SWAP1 CALLER SWAP1 DUP4 SWAP1 DUP4 DUP2 DUP2 DUP2 DUP6 DUP8 GAS CALL SWAP3 POP POP POP RETURNDATASIZE DUP1 PUSH0 DUP2 EQ PUSH2 0x1197 JUMPI PUSH1 0x40 MLOAD SWAP2 POP PUSH1 0x1F NOT PUSH1 0x3F RETURNDATASIZE ADD AND DUP3 ADD PUSH1 0x40 MSTORE RETURNDATASIZE DUP3 MSTORE RETURNDATASIZE PUSH0 PUSH1 0x20 DUP5 ADD RETURNDATACOPY PUSH2 0x119C JUMP JUMPDEST PUSH1 0x60 SWAP2 POP JUMPDEST POP POP SWAP1 POP DUP1 PUSH2 0x11BD JUMPI PUSH1 0x40 MLOAD PUSH3 0x461BCD PUSH1 0xE5 SHL DUP2 MSTORE PUSH1 0x4 ADD PUSH2 0x582 SWAP1 PUSH2 0x193D JUMP JUMPDEST PUSH1 0x40 MLOAD CALLER SWAP1 DUP6 SWAP1 PUSH32 0x529D3BDFF5DE00724E674A22C5CC88AECA2E6496BF02E3369A4E43A7171BE052 SWAP1 PUSH0 SWAP1 LOG3 POP POP POP PUSH2 0xB84 PUSH1 0x1 PUSH0 DUP1 MLOAD PUSH1 0x20 PUSH2 0x1965 DUP4 CODECOPY DUP2 MLOAD SWAP2 MSTORE SSTORE JUMP JUMPDEST PUSH2 0x120A PUSH2 0x15F2 JUMP JUMPDEST PUSH0 DUP2 DUP2 MSTORE PUSH1 0x3 PUSH1 0x20 MSTORE PUSH1 0x40 SWAP1 KECCAK256 PUSH1 0x5 DUP2 ADD SLOAD PUSH1 0xFF AND PUSH2 0x123B JUMPI PUSH1 0x40 MLOAD PUSH3 0x461BCD PUSH1 0xE5 SHL DUP2 MSTORE PUSH1 0x4 ADD PUSH2 0x582 SWAP1 PUSH2 0x18CA JUMP JUMPDEST DUP1 PUSH1 0x4 ADD SLOAD CALLVALUE EQ PUSH2 0x127A JUMPI PUSH1 0x40 MLOAD PUSH3 0x461BCD PUSH1 0xE5 SHL DUP2 MSTORE PUSH1 0x20 PUSH1 0x4 DUP3 ADD MSTORE PUSH1 0x9 PUSH1 0x24 DUP3 ADD MSTORE PUSH9 0x6261642076616C7565 PUSH1 0xB8 SHL PUSH1 0x44 DUP3 ADD MSTORE PUSH1 0x64 ADD PUSH2 0x582 JUMP JUMPDEST PUSH2 0x1283 DUP3 PUSH2 0x160D JUMP JUMPDEST PUSH1 0x5 DUP1 DUP3 ADD DUP1 SLOAD PUSH1 0xFF NOT AND SWAP1 SSTORE DUP2 SLOAD PUSH1 0x1 PUSH1 0x1 PUSH1 0xA0 SHL SUB AND PUSH0 SWAP1 DUP2 MSTORE PUSH1 0x20 SWAP2 SWAP1 SWAP2 MSTORE PUSH1 0x40 DUP2 KECCAK256 DUP1 SLOAD PUSH1 0x1 SWAP3 SWAP1 PUSH2 0x12BA SWAP1 DUP5 SWAP1 PUSH2 0x18F4 JUMP JUMPDEST SWAP1 SWAP2 SSTORE POP POP CALLER PUSH0 SWAP1 DUP2 MSTORE PUSH1 0x7 PUSH1 0x20 MSTORE PUSH1 0x40 DUP2 KECCAK256 DUP1 SLOAD PUSH1 0x1 SWAP3 SWAP1 PUSH2 0x12DE SWAP1 DUP5 SWAP1 PUSH2 0x18B1 JUMP JUMPDEST SWAP1 SWAP2 SSTORE POP POP PUSH1 0x2 SLOAD PUSH0 SWAP1 PUSH2 0x2710 SWAP1 PUSH2 0x12FA SWAP1 PUSH2 0xFFFF AND CALLVALUE PUSH2 0x1907 JUMP JUMPDEST PUSH2 0x1304 SWAP2 SWAP1 PUSH2 0x191E JUMP JUMPDEST SWAP1 POP PUSH0 PUSH2 0x1311 DUP3 CALLVALUE PUSH2 0x18F4 JUMP JUMPDEST SWAP1 POP PUSH0 PUSH1 0x2 DUP1 SLOAD SWAP1 PUSH2 0x100 EXP SWAP1 DIV PUSH1 0x1 PUSH1 0x1 PUSH1 0xA0 SHL SUB AND PUSH1 0x1 PUSH1 0x1 PUSH1 0xA0 SHL SUB AND DUP4 PUSH1 0x40 MLOAD PUSH0 PUSH1 0x40 MLOAD DUP1 DUP4 SUB DUP2 DUP6 DUP8 GAS CALL SWAP3 POP POP POP RETURNDATASIZE DUP1 PUSH0 DUP2 EQ PUSH2 0x136F JUMPI PUSH1 0x40 MLOAD SWAP2 POP PUSH1 0x1F NOT PUSH1 0x3F RETURNDATASIZE ADD AND DUP3 ADD PUSH1 0x40 MSTORE RETURNDATASIZE DUP3 MSTORE RETURNDATASIZE PUSH0 PUSH1 0x20 DUP5 ADD RETURNDATACOPY PUSH2 0x1374 JUMP JUMPDEST PUSH1 0x60 SWAP2 POP JUMPDEST POP POP SWAP1 POP DUP1 PUSH2 0x13BB JUMPI PUSH1 0x40 MLOAD PUSH3 0x461BCD PUSH1 0xE5 SHL DUP2 MSTORE PUSH1 0x20 PUSH1 0x4 DUP3 ADD MSTORE PUSH1 0x13 PUSH1 0x24 DUP3 ADD MSTORE PUSH19 0x199959481D1C985B9CD9995C8819985A5B1959 PUSH1 0x6A SHL PUSH1 0x44 DUP3 ADD MSTORE PUSH1 0x64 ADD PUSH2 0x582 JUMP JUMPDEST DUP4 SLOAD PUSH1 0x40 MLOAD PUSH0 SWAP2 PUSH1 0x1 PUSH1 0x1 PUSH1 0xA0 SHL SUB AND SWAP1 DUP5 SWAP1 DUP4 DUP2 DUP2 DUP2 DUP6 DUP8 GAS CALL SWAP3 POP POP POP RETURNDATASIZE DUP1 PUSH0 DUP2 EQ PUSH2 0x1404 JUMPI PUSH1 0x40 MLOAD SWAP2 POP PUSH1 0x1F NOT PUSH1 0x3F RETURNDATASIZE ADD AND DUP3 ADD PUSH1 0x40 MSTORE RETURNDATASIZE DUP3 MSTORE RETURNDATASIZE PUSH0 PUSH1 0x20 DUP5 ADD RETURNDATACOPY PUSH2 0x1409 JUMP JUMPDEST PUSH1 0x60 SWAP2 POP JUMPDEST POP POP SWAP1 POP DUP1 PUSH2 0x1453 JUMPI PUSH1 0x40 MLOAD PUSH3 0x461BCD PUSH1 0xE5 SHL DUP2 MSTORE PUSH1 0x20 PUSH1 0x4 DUP3 ADD MSTORE PUSH1 0x16 PUSH1 0x24 DUP3 ADD MSTORE PUSH22 0x1CD95B1B195C881D1C985B9CD9995C8819985A5B1959 PUSH1 0x52 SHL PUSH1 0x44 DUP3 ADD MSTORE PUSH1 0x64 ADD PUSH2 0x582 JUMP JUMPDEST PUSH1 0x1 DUP6 ADD SLOAD PUSH1 0x2 DUP7 ADD SLOAD PUSH1 0x40 MLOAD PUSH4 0x23B872DD PUSH1 0xE0 SHL DUP2 MSTORE PUSH1 0x1 PUSH1 0x1 PUSH1 0xA0 SHL SUB SWAP1 SWAP3 AND SWAP2 PUSH4 0x23B872DD SWAP2 PUSH2 0x148C SWAP2 ADDRESS SWAP2 CALLER SWAP2 PUSH1 0x4 ADD PUSH2 0x1879 JUMP JUMPDEST PUSH0 PUSH1 0x40 MLOAD DUP1 DUP4 SUB DUP2 PUSH0 DUP8 DUP1 EXTCODESIZE ISZERO DUP1 ISZERO PUSH2 0x14A3 JUMPI PUSH0 DUP1 REVERT JUMPDEST POP GAS CALL ISZERO DUP1 ISZERO PUSH2 0x14B5 JUMPI RETURNDATASIZE PUSH0 DUP1 RETURNDATACOPY RETURNDATASIZE PUSH0 REVERT JUMPDEST POP POP PUSH1 0x40 MLOAD CALLVALUE DUP2 MSTORE CALLER SWAP3 POP DUP9 SWAP2 POP PUSH32 0x353F76DA30E3999180C686B8FAB4AA0EF83DAA7CFA7326158D5283490DDA598F SWAP1 PUSH1 0x20 ADD PUSH1 0x40 MLOAD DUP1 SWAP2 SUB SWAP1 LOG3 POP POP POP POP POP PUSH2 0xB84 PUSH1 0x1 PUSH0 DUP1 MLOAD PUSH1 0x20 PUSH2 0x1965 DUP4 CODECOPY DUP2 MLOAD SWAP2 MSTORE SSTORE JUMP JUMPDEST PUSH2 0x1513 PUSH2 0x16F2 JUMP JUMPDEST PUSH1 0x1 PUSH1 0x1 PUSH1 0xA0 SHL SUB DUP2 AND PUSH2 0x155D JUMPI PUSH1 0x40 MLOAD PUSH3 0x461BCD PUSH1 0xE5 SHL DUP2 MSTORE PUSH1 0x20 PUSH1 0x4 DUP3 ADD MSTORE PUSH1 0x11 PUSH1 0x24 DUP3 ADD MSTORE PUSH17 0x726563697069656E74206973207A65726F PUSH1 0x78 SHL PUSH1 0x44 DUP3 ADD MSTORE PUSH1 0x64 ADD PUSH2 0x582 JUMP JUMPDEST PUSH1 0x2 DUP1 SLOAD PUSH1 0x1 PUSH1 0x1 PUSH1 0xA0 SHL SUB DUP4 DUP2 AND PUSH3 0x10000 DUP2 DUP2 MUL PUSH3 0x10000 PUSH1 0x1 PUSH1 0xB0 SHL SUB NOT DUP6 AND OR SWAP1 SWAP5 SSTORE PUSH1 0x40 MLOAD SWAP4 SWAP1 SWAP3 DIV AND SWAP2 DUP3 SWAP1 PUSH32 0xAAEBCF1BFA00580E41D966056B48521FA9F202645C86D4DDF28113E617C1B1D3 SWAP1 PUSH0 SWAP1 LOG3 POP POP JUMP JUMPDEST PUSH2 0x15C0 PUSH2 0x16F2 JUMP JUMPDEST PUSH1 0x1 PUSH1 0x1 PUSH1 0xA0 SHL SUB DUP2 AND PUSH2 0x15E9 JUMPI PUSH1 0x40 MLOAD PUSH4 0x1E4FBDF7 PUSH1 0xE0 SHL DUP2 MSTORE PUSH0 PUSH1 0x4 DUP3 ADD MSTORE PUSH1 0x24 ADD PUSH2 0x582 JUMP JUMPDEST PUSH2 0xB84 DUP2 PUSH2 0x171E JUMP JUMPDEST PUSH2 0x15FA PUSH2 0x176D JUMP JUMPDEST PUSH1 0x2 PUSH0 DUP1 MLOAD PUSH1 0x20 PUSH2 0x1965 DUP4 CODECOPY DUP2 MLOAD SWAP2 MSTORE SSTORE JUMP JUMPDEST PUSH0 DUP2 DUP2 MSTORE PUSH1 0x4 PUSH1 0x20 MSTORE PUSH1 0x40 SWAP1 KECCAK256 PUSH1 0x2 DUP2 ADD SLOAD PUSH1 0x1 PUSH1 0x40 SHL SWAP1 DIV PUSH1 0xFF AND PUSH2 0x1631 JUMPI POP POP JUMP JUMPDEST DUP1 SLOAD PUSH1 0x1 DUP1 DUP4 ADD DUP1 SLOAD PUSH1 0x2 DUP6 ADD DUP1 SLOAD PUSH1 0xFF PUSH1 0x40 SHL NOT AND SWAP1 SSTORE PUSH0 SWAP2 DUP3 SWAP1 SSTORE PUSH1 0x1 PUSH1 0x1 PUSH1 0xA0 SHL SUB SWAP1 SWAP4 AND DUP1 DUP3 MSTORE PUSH1 0x6 PUSH1 0x20 MSTORE PUSH1 0x40 DUP3 KECCAK256 DUP1 SLOAD SWAP2 SWAP5 SWAP4 SWAP3 SWAP1 SWAP2 PUSH2 0x1678 SWAP1 DUP5 SWAP1 PUSH2 0x18F4 JUMP JUMPDEST SWAP1 SWAP2 SSTORE POP POP PUSH1 0x40 MLOAD PUSH0 SWAP1 PUSH1 0x1 PUSH1 0x1 PUSH1 0xA0 SHL SUB DUP5 AND SWAP1 DUP4 SWAP1 DUP4 DUP2 DUP2 DUP2 DUP6 DUP8 GAS CALL SWAP3 POP POP POP RETURNDATASIZE DUP1 PUSH0 DUP2 EQ PUSH2 0x16C5 JUMPI PUSH1 0x40 MLOAD SWAP2 POP PUSH1 0x1F NOT PUSH1 0x3F RETURNDATASIZE ADD AND DUP3 ADD PUSH1 0x40 MSTORE RETURNDATASIZE DUP3 MSTORE RETURNDATASIZE PUSH0 PUSH1 0x20 DUP5 ADD RETURNDATACOPY PUSH2 0x16CA JUMP JUMPDEST PUSH1 0x60 SWAP2 POP JUMPDEST POP POP SWAP1 POP DUP1 PUSH2 0x16EB JUMPI PUSH1 0x40 MLOAD PUSH3 0x461BCD PUSH1 0xE5 SHL DUP2 MSTORE PUSH1 0x4 ADD PUSH2 0x582 SWAP1 PUSH2 0x193D JUMP JUMPDEST POP POP POP POP POP JUMP JUMPDEST PUSH0 SLOAD PUSH1 0x1 PUSH1 0x1 PUSH1 0xA0 SHL SUB AND CALLER EQ PUSH2 0x1072 JUMPI PUSH1 0x40 MLOAD PUSH4 0x118CDAA7 PUSH1 0xE0 SHL DUP2 MSTORE CALLER PUSH1 0x4 DUP3 ADD MSTORE PUSH1 0x24 ADD PUSH2 0x582 JUMP JUMPDEST PUSH0 DUP1 SLOAD PUSH1 0x1 PUSH1 0x1 PUSH1 0xA0 SHL SUB DUP4 DUP2 AND PUSH1 0x1 PUSH1 0x1 PUSH1 0xA0 SHL SUB NOT DUP4 AND DUP2 OR DUP5 SSTORE PUSH1 0x40 MLOAD SWAP2 SWAP1 SWAP3 AND SWAP3 DUP4 SWAP2 PUSH32 0x8BE0079C531659141344CD1FD0A4F28419497F9722A3DAAFE3B4186F6B6457E0 SWAP2 SWAP1 LOG3 POP POP JUMP JUMPDEST PUSH0 DUP1 MLOAD PUSH1 0x20 PUSH2 0x1965 DUP4 CODECOPY DUP2 MLOAD SWAP2 MSTORE SLOAD PUSH1 0x2 SUB PUSH2 0x1072 JUMPI PUSH1 0x40 MLOAD PUSH4 0x3EE5AEB5 PUSH1 0xE0 SHL DUP2 MSTORE PUSH1 0x4 ADD PUSH1 0x40 MLOAD DUP1 SWAP2 SUB SWAP1 REVERT JUMPDEST PUSH0 PUSH1 0x20 DUP3 DUP5 SUB SLT ISZERO PUSH2 0x17AC JUMPI PUSH0 DUP1 REVERT JUMPDEST POP CALLDATALOAD SWAP2 SWAP1 POP JUMP JUMPDEST DUP1 CALLDATALOAD PUSH1 0x1 PUSH1 0x1 PUSH1 0xA0 SHL SUB DUP2 AND DUP2 EQ PUSH2 0x17C9 JUMPI PUSH0 DUP1 REVERT JUMPDEST SWAP2 SWAP1 POP JUMP JUMPDEST PUSH0 DUP1 PUSH0 PUSH1 0x60 DUP5 DUP7 SUB SLT ISZERO PUSH2 0x17E0 JUMPI PUSH0 DUP1 REVERT JUMPDEST PUSH2 0x17E9 DUP5 PUSH2 0x17B3 JUMP JUMPDEST SWAP6 PUSH1 0x20 DUP6 ADD CALLDATALOAD SWAP6 POP PUSH1 0x40 SWAP1 SWAP5 ADD CALLDATALOAD SWAP4 SWAP3 POP POP POP JUMP JUMPDEST PUSH0 PUSH1 0x20 DUP3 DUP5 SUB SLT ISZERO PUSH2 0x180E JUMPI PUSH0 DUP1 REVERT JUMPDEST PUSH2 0x1817 DUP3 PUSH2 0x17B3 JUMP JUMPDEST SWAP4 SWAP3 POP POP POP JUMP JUMPDEST PUSH0 DUP1 PUSH1 0x40 DUP4 DUP6 SUB SLT ISZERO PUSH2 0x182F JUMPI PUSH0 DUP1 REVERT JUMPDEST DUP3 CALLDATALOAD SWAP2 POP PUSH1 0x20 DUP4 ADD CALLDATALOAD PUSH8 0xFFFFFFFFFFFFFFFF DUP2 AND DUP2 EQ PUSH2 0x184D JUMPI PUSH0 DUP1 REVERT JUMPDEST DUP1 SWAP2 POP POP SWAP3 POP SWAP3 SWAP1 POP JUMP JUMPDEST PUSH0 PUSH1 0x20 DUP3 DUP5 SUB SLT ISZERO PUSH2 0x1868 JUMPI PUSH0 DUP1 REVERT JUMPDEST DUP2 CALLDATALOAD PUSH2 0xFFFF DUP2 AND DUP2 EQ PUSH2 0x1817 JUMPI PUSH0 DUP1 REVERT JUMPDEST PUSH1 0x1 PUSH1 0x1 PUSH1 0xA0 SHL SUB SWAP4 DUP5 AND DUP2 MSTORE SWAP2 SWAP1 SWAP3 AND PUSH1 0x20 DUP3 ADD MSTORE PUSH1 0x40 DUP2 ADD SWAP2 SWAP1 SWAP2 MSTORE PUSH1 0x60 ADD SWAP1 JUMP JUMPDEST PUSH4 0x4E487B71 PUSH1 0xE0 SHL PUSH0 MSTORE PUSH1 0x11 PUSH1 0x4 MSTORE PUSH1 0x24 PUSH0 REVERT JUMPDEST DUP1 DUP3 ADD DUP1 DUP3 GT ISZERO PUSH2 0x18C4 JUMPI PUSH2 0x18C4 PUSH2 0x189D JUMP JUMPDEST SWAP3 SWAP2 POP POP JUMP JUMPDEST PUSH1 0x20 DUP1 DUP3 MSTORE PUSH1 0x10 SWAP1 DUP3 ADD MSTORE PUSH16 0x6C697374696E6720696E616374697665 PUSH1 0x80 SHL PUSH1 0x40 DUP3 ADD MSTORE PUSH1 0x60 ADD SWAP1 JUMP JUMPDEST DUP2 DUP2 SUB DUP2 DUP2 GT ISZERO PUSH2 0x18C4 JUMPI PUSH2 0x18C4 PUSH2 0x189D JUMP JUMPDEST DUP1 DUP3 MUL DUP2 ISZERO DUP3 DUP3 DIV DUP5 EQ OR PUSH2 0x18C4 JUMPI PUSH2 0x18C4 PUSH2 0x189D JUMP JUMPDEST PUSH0 DUP3 PUSH2 0x1938 JUMPI PUSH4 0x4E487B71 PUSH1 0xE0 SHL PUSH0 MSTORE PUSH1 0x12 PUSH1 0x4 MSTORE PUSH1 0x24 PUSH0 REVERT JUMPDEST POP DIV SWAP1 JUMP JUMPDEST PUSH1 0x20 DUP1 DUP3 MSTORE PUSH1 0xD SWAP1 DUP3 ADD MSTORE PUSH13 0x1C99599D5B990819985A5B1959 PUSH1 0x9A SHL PUSH1 0x40 DUP3 ADD MSTORE PUSH1 0x60 ADD SWAP1 JUMP INVALID SWAP12 PUSH24 0x9B17422D0DF92223018B32B4D1FA46E071723D6817E2486D STOP EXTCODESIZE 0xEC 0xC5 PUSH0 STOP LOG2 PUSH5 0x6970667358 0x22 SLT KECCAK256 PUSH21 0xC6B94149096090398F14B1E6AC68A85062213D36A7 EXTCODESIZE 0x4F PUSH11 0x2C1E677D30F91764736F6C PUSH4 0x4300081A STOP CALLER "},"methodIdentifiers":{"MAX_FEE_BPS()":"d55be8c6","acceptBid(uint256)":"2b1fd58a","buy(uint256)":"d96a094a","cancelBid(uint256)":"9703ef35","cancelListing(uint256)":"305a67a8","createListing(address,uint256,uint256)":"24780c56","feeRecipient()":"46904840","getHighestBid(uint256)":"8f288644","getListing(uint256)":"107a274a","getUserStats(address)":"4e43603a","owner()":"8da5cb5b","placeBid(uint256,uint64)":"56aa1894","platformFeeBps()":"22dcd13e","renounceOwnership()":"715018a6","setFeeRecipient(address)":"e74b981b","setPlatformFee(uint16)":"5cbc742c","totalListings()":"c78b616c","transferOwnership(address)":"f2fde38b"}}}}}