{
  "_format": "hh3-artifact-1",
  "contractName": "GenesoGenesis721",
  "sourceName": "src/GenesoGenesis721.sol",
  "abi": [
    {
      "inputs": [
        {
          "internalType": "address",
          "name": "initialOwner",
          "type": "address"
        },
        {
          "internalType": "string",
          "name": "name_",
          "type": "string"
        },
        {
          "internalType": "string",
          "name": "symbol_",
          "type": "string"
        }
      ],
      "stateMutability": "nonpayable",
      "type": "constructor"
    },
    {
      "inputs": [
        {
          "internalType": "address",
          "name": "sender",
          "type": "address"
        },
        {
          "internalType": "uint256",
          "name": "tokenId",
          "type": "uint256"
        },
        {
          "internalType": "address",
          "name": "owner",
          "type": "address"
        }
      ],
      "name": "ERC721IncorrectOwner",
      "type": "error"
    },
    {
      "inputs": [
        {
          "internalType": "address",
          "name": "operator",
          "type": "address"
        },
        {
          "internalType": "uint256",
          "name": "tokenId",
          "type": "uint256"
        }
      ],
      "name": "ERC721InsufficientApproval",
      "type": "error"
    },
    {
      "inputs": [
        {
          "internalType": "address",
          "name": "approver",
          "type": "address"
        }
      ],
      "name": "ERC721InvalidApprover",
      "type": "error"
    },
    {
      "inputs": [
        {
          "internalType": "address",
          "name": "operator",
          "type": "address"
        }
      ],
      "name": "ERC721InvalidOperator",
      "type": "error"
    },
    {
      "inputs": [
        {
          "internalType": "address",
          "name": "owner",
          "type": "address"
        }
      ],
      "name": "ERC721InvalidOwner",
      "type": "error"
    },
    {
      "inputs": [
        {
          "internalType": "address",
          "name": "receiver",
          "type": "address"
        }
      ],
      "name": "ERC721InvalidReceiver",
      "type": "error"
    },
    {
      "inputs": [
        {
          "internalType": "address",
          "name": "sender",
          "type": "address"
        }
      ],
      "name": "ERC721InvalidSender",
      "type": "error"
    },
    {
      "inputs": [
        {
          "internalType": "uint256",
          "name": "tokenId",
          "type": "uint256"
        }
      ],
      "name": "ERC721NonexistentToken",
      "type": "error"
    },
    {
      "inputs": [
        {
          "internalType": "address",
          "name": "owner",
          "type": "address"
        }
      ],
      "name": "OwnableInvalidOwner",
      "type": "error"
    },
    {
      "inputs": [
        {
          "internalType": "address",
          "name": "account",
          "type": "address"
        }
      ],
      "name": "OwnableUnauthorizedAccount",
      "type": "error"
    },
    {
      "anonymous": false,
      "inputs": [
        {
          "indexed": true,
          "internalType": "address",
          "name": "owner",
          "type": "address"
        },
        {
          "indexed": true,
          "internalType": "address",
          "name": "approved",
          "type": "address"
        },
        {
          "indexed": true,
          "internalType": "uint256",
          "name": "tokenId",
          "type": "uint256"
        }
      ],
      "name": "Approval",
      "type": "event"
    },
    {
      "anonymous": false,
      "inputs": [
        {
          "indexed": true,
          "internalType": "address",
          "name": "owner",
          "type": "address"
        },
        {
          "indexed": true,
          "internalType": "address",
          "name": "operator",
          "type": "address"
        },
        {
          "indexed": false,
          "internalType": "bool",
          "name": "approved",
          "type": "bool"
        }
      ],
      "name": "ApprovalForAll",
      "type": "event"
    },
    {
      "anonymous": false,
      "inputs": [
        {
          "indexed": false,
          "internalType": "uint256",
          "name": "_fromTokenId",
          "type": "uint256"
        },
        {
          "indexed": false,
          "internalType": "uint256",
          "name": "_toTokenId",
          "type": "uint256"
        }
      ],
      "name": "BatchMetadataUpdate",
      "type": "event"
    },
    {
      "anonymous": false,
      "inputs": [
        {
          "indexed": false,
          "internalType": "uint256",
          "name": "_tokenId",
          "type": "uint256"
        }
      ],
      "name": "MetadataUpdate",
      "type": "event"
    },
    {
      "anonymous": false,
      "inputs": [
        {
          "indexed": true,
          "internalType": "address",
          "name": "previousOwner",
          "type": "address"
        },
        {
          "indexed": true,
          "internalType": "address",
          "name": "newOwner",
          "type": "address"
        }
      ],
      "name": "OwnershipTransferred",
      "type": "event"
    },
    {
      "anonymous": false,
      "inputs": [
        {
          "indexed": true,
          "internalType": "address",
          "name": "from",
          "type": "address"
        },
        {
          "indexed": true,
          "internalType": "address",
          "name": "to",
          "type": "address"
        },
        {
          "indexed": true,
          "internalType": "uint256",
          "name": "tokenId",
          "type": "uint256"
        }
      ],
      "name": "Transfer",
      "type": "event"
    },
    {
      "inputs": [
        {
          "internalType": "address",
          "name": "to",
          "type": "address"
        },
        {
          "internalType": "uint256",
          "name": "tokenId",
          "type": "uint256"
        }
      ],
      "name": "approve",
      "outputs": [],
      "stateMutability": "nonpayable",
      "type": "function"
    },
    {
      "inputs": [
        {
          "internalType": "address",
          "name": "owner",
          "type": "address"
        }
      ],
      "name": "balanceOf",
      "outputs": [
        {
          "internalType": "uint256",
          "name": "",
          "type": "uint256"
        }
      ],
      "stateMutability": "view",
      "type": "function"
    },
    {
      "inputs": [],
      "name": "baseTokenURI",
      "outputs": [
        {
          "internalType": "string",
          "name": "",
          "type": "string"
        }
      ],
      "stateMutability": "view",
      "type": "function"
    },
    {
      "inputs": [
        {
          "internalType": "uint256",
          "name": "tokenId",
          "type": "uint256"
        }
      ],
      "name": "getApproved",
      "outputs": [
        {
          "internalType": "address",
          "name": "",
          "type": "address"
        }
      ],
      "stateMutability": "view",
      "type": "function"
    },
    {
      "inputs": [
        {
          "internalType": "address",
          "name": "owner",
          "type": "address"
        },
        {
          "internalType": "address",
          "name": "operator",
          "type": "address"
        }
      ],
      "name": "isApprovedForAll",
      "outputs": [
        {
          "internalType": "bool",
          "name": "",
          "type": "bool"
        }
      ],
      "stateMutability": "view",
      "type": "function"
    },
    {
      "inputs": [
        {
          "internalType": "address",
          "name": "to",
          "type": "address"
        },
        {
          "internalType": "string",
          "name": "tokenUri",
          "type": "string"
        }
      ],
      "name": "mintTo",
      "outputs": [
        {
          "internalType": "uint256",
          "name": "tokenId",
          "type": "uint256"
        }
      ],
      "stateMutability": "nonpayable",
      "type": "function"
    },
    {
      "inputs": [],
      "name": "name",
      "outputs": [
        {
          "internalType": "string",
          "name": "",
          "type": "string"
        }
      ],
      "stateMutability": "view",
      "type": "function"
    },
    {
      "inputs": [],
      "name": "nextTokenId",
      "outputs": [
        {
          "internalType": "uint256",
          "name": "",
          "type": "uint256"
        }
      ],
      "stateMutability": "view",
      "type": "function"
    },
    {
      "inputs": [],
      "name": "owner",
      "outputs": [
        {
          "internalType": "address",
          "name": "",
          "type": "address"
        }
      ],
      "stateMutability": "view",
      "type": "function"
    },
    {
      "inputs": [
        {
          "internalType": "uint256",
          "name": "tokenId",
          "type": "uint256"
        }
      ],
      "name": "ownerOf",
      "outputs": [
        {
          "internalType": "address",
          "name": "",
          "type": "address"
        }
      ],
      "stateMutability": "view",
      "type": "function"
    },
    {
      "inputs": [],
      "name": "renounceOwnership",
      "outputs": [],
      "stateMutability": "nonpayable",
      "type": "function"
    },
    {
      "inputs": [
        {
          "internalType": "address",
          "name": "from",
          "type": "address"
        },
        {
          "internalType": "address",
          "name": "to",
          "type": "address"
        },
        {
          "internalType": "uint256",
          "name": "tokenId",
          "type": "uint256"
        }
      ],
      "name": "safeTransferFrom",
      "outputs": [],
      "stateMutability": "nonpayable",
      "type": "function"
    },
    {
      "inputs": [
        {
          "internalType": "address",
          "name": "from",
          "type": "address"
        },
        {
          "internalType": "address",
          "name": "to",
          "type": "address"
        },
        {
          "internalType": "uint256",
          "name": "tokenId",
          "type": "uint256"
        },
        {
          "internalType": "bytes",
          "name": "data",
          "type": "bytes"
        }
      ],
      "name": "safeTransferFrom",
      "outputs": [],
      "stateMutability": "nonpayable",
      "type": "function"
    },
    {
      "inputs": [
        {
          "internalType": "address",
          "name": "operator",
          "type": "address"
        },
        {
          "internalType": "bool",
          "name": "approved",
          "type": "bool"
        }
      ],
      "name": "setApprovalForAll",
      "outputs": [],
      "stateMutability": "nonpayable",
      "type": "function"
    },
    {
      "inputs": [
        {
          "internalType": "string",
          "name": "newBaseURI",
          "type": "string"
        }
      ],
      "name": "setBaseURI",
      "outputs": [],
      "stateMutability": "nonpayable",
      "type": "function"
    },
    {
      "inputs": [
        {
          "internalType": "bytes4",
          "name": "interfaceId",
          "type": "bytes4"
        }
      ],
      "name": "supportsInterface",
      "outputs": [
        {
          "internalType": "bool",
          "name": "",
          "type": "bool"
        }
      ],
      "stateMutability": "view",
      "type": "function"
    },
    {
      "inputs": [],
      "name": "symbol",
      "outputs": [
        {
          "internalType": "string",
          "name": "",
          "type": "string"
        }
      ],
      "stateMutability": "view",
      "type": "function"
    },
    {
      "inputs": [
        {
          "internalType": "uint256",
          "name": "tokenId",
          "type": "uint256"
        }
      ],
      "name": "tokenURI",
      "outputs": [
        {
          "internalType": "string",
          "name": "",
          "type": "string"
        }
      ],
      "stateMutability": "view",
      "type": "function"
    },
    {
      "inputs": [
        {
          "internalType": "address",
          "name": "from",
          "type": "address"
        },
        {
          "internalType": "address",
          "name": "to",
          "type": "address"
        },
        {
          "internalType": "uint256",
          "name": "tokenId",
          "type": "uint256"
        }
      ],
      "name": "transferFrom",
      "outputs": [],
      "stateMutability": "nonpayable",
      "type": "function"
    },
    {
      "inputs": [
        {
          "internalType": "address",
          "name": "newOwner",
          "type": "address"
        }
      ],
      "name": "transferOwnership",
      "outputs": [],
      "stateMutability": "nonpayable",
      "type": "function"
    }
  ],
  "bytecode": "0x60806040526001600855348015610014575f80fd5b506040516119913803806119918339810160408190526100339161017e565b8282825f6100418382610284565b50600161004e8282610284565b5050506001600160a01b03811661007e57604051631e4fbdf760e01b81525f600482015260240160405180910390fd5b61008781610090565b5050505061033e565b600780546001600160a01b038381166001600160a01b0319831681179093556040519116919082907f8be0079c531659141344cd1fd0a4f28419497f9722a3daafe3b4186f6b6457e0905f90a35050565b634e487b7160e01b5f52604160045260245ffd5b5f82601f830112610104575f80fd5b81516001600160401b0381111561011d5761011d6100e1565b604051601f8201601f19908116603f011681016001600160401b038111828210171561014b5761014b6100e1565b604052818152838201602001851015610162575f80fd5b8160208501602083015e5f918101602001919091529392505050565b5f805f60608486031215610190575f80fd5b83516001600160a01b03811681146101a6575f80fd5b60208501519093506001600160401b038111156101c1575f80fd5b6101cd868287016100f5565b604086015190935090506001600160401b038111156101ea575f80fd5b6101f6868287016100f5565b9150509250925092565b600181811c9082168061021457607f821691505b60208210810361023257634e487b7160e01b5f52602260045260245ffd5b50919050565b601f82111561027f57805f5260205f20601f840160051c8101602085101561025d5750805b601f840160051c820191505b8181101561027c575f8155600101610269565b50505b505050565b81516001600160401b0381111561029d5761029d6100e1565b6102b1816102ab8454610200565b84610238565b6020601f8211600181146102e3575f83156102cc5750848201515b5f19600385901b1c1916600184901b17845561027c565b5f84815260208120601f198516915b8281101561031257878501518255602094850194600190920191016102f2565b508482101561032f57868401515f19600387901b60f8161c191681555b50505050600190811b01905550565b6116468061034b5f395ff3fe608060405234801561000f575f80fd5b5060043610610126575f3560e01c8063715018a6116100a9578063b88d4fde1161006e578063b88d4fde14610264578063c87b56dd14610277578063d547cfb71461028a578063e985e9c514610292578063f2fde38b146102a5575f80fd5b8063715018a61461022757806375794a3c1461022f5780638da5cb5b1461023857806395d89b4114610249578063a22cb46514610251575f80fd5b806323b872dd116100ef57806323b872dd146101c857806342842e0e146101db57806355f804b3146101ee5780636352211e1461020157806370a0823114610214575f80fd5b806275a3171461012a57806301ffc9a71461015057806306fdde0314610173578063081812fc14610188578063095ea7b3146101b3575b5f80fd5b61013d610138366004611093565b6102b8565b6040519081526020015b60405180910390f35b61016361015e3660046110f7565b610373565b6040519015158152602001610147565b61017b61039d565b6040516101479190611140565b61019b610196366004611152565b61042c565b6040516001600160a01b039091168152602001610147565b6101c66101c1366004611169565b610453565b005b6101c66101d6366004611191565b610462565b6101c66101e9366004611191565b6104eb565b6101c66101fc3660046111cb565b61050a565b61019b61020f366004611152565b61051f565b61013d61022236600461120a565b610529565b6101c661056e565b61013d60085481565b6007546001600160a01b031661019b565b61017b610581565b6101c661025f366004611223565b610590565b6101c6610272366004611270565b61059b565b61017b610285366004611152565b6105b3565b61017b610628565b6101636102a036600461134d565b6106b4565b6101c66102b336600461120a565b6106e1565b5f6102c161071e565b6001600160a01b0384166103095760405162461bcd60e51b815260206004820152600a602482015269746f206973207a65726f60b01b60448201526064015b60405180910390fd5b5060088054906001905f61031d838561137e565b9091555061032d9050848261074b565b61036c8184848080601f0160208091040260200160405190810160405280939291908181526020018383808284375f9201919091525061076492505050565b9392505050565b5f6001600160e01b03198216632483248360e11b14806103975750610397826107b3565b92915050565b60605f80546103ab9061139d565b80601f01602080910402602001604051908101604052809291908181526020018280546103d79061139d565b80156104225780601f106103f957610100808354040283529160200191610422565b820191905f5260205f20905b81548152906001019060200180831161040557829003601f168201915b5050505050905090565b5f61043682610802565b505f828152600460205260409020546001600160a01b0316610397565b61045e82823361083a565b5050565b6001600160a01b03821661048b57604051633250574960e11b81525f6004820152602401610300565b5f610497838333610847565b9050836001600160a01b0316816001600160a01b0316146104e5576040516364283d7b60e01b81526001600160a01b0380861660048301526024820184905282166044820152606401610300565b50505050565b61050583838360405180602001604052805f81525061059b565b505050565b61051261071e565b6009610505828483611419565b5f61039782610802565b5f6001600160a01b038216610553576040516322718ad960e21b81525f6004820152602401610300565b506001600160a01b03165f9081526003602052604090205490565b61057661071e565b61057f5f610939565b565b6060600180546103ab9061139d565b61045e33838361098a565b6105a6848484610462565b6104e53385858585610a51565b60606105be82610802565b505f6105c8610b79565b90505f6105d484610b88565b905081515f036105e5579392505050565b8051156106175781816040516020016105ff9291906114ea565b60405160208183030381529060405292505050919050565b61062084610c27565b949350505050565b600980546106359061139d565b80601f01602080910402602001604051908101604052809291908181526020018280546106619061139d565b80156106ac5780601f10610683576101008083540402835291602001916106ac565b820191905f5260205f20905b81548152906001019060200180831161068f57829003601f168201915b505050505081565b6001600160a01b039182165f90815260056020908152604080832093909416825291909152205460ff1690565b6106e961071e565b6001600160a01b03811661071257604051631e4fbdf760e01b81525f6004820152602401610300565b61071b81610939565b50565b6007546001600160a01b0316331461057f5760405163118cdaa760e01b8152336004820152602401610300565b61045e828260405180602001604052805f815250610c8b565b5f82815260066020526040902061077b82826114fe565b506040518281527ff8e1a15aba9398e019f0b49df1a4fde98ee17ae345cb5f6b5e2c27f5033e8ce79060200160405180910390a15050565b5f6001600160e01b031982166380ac58cd60e01b14806107e357506001600160e01b03198216635b5e139f60e01b145b8061039757506301ffc9a760e01b6001600160e01b0319831614610397565b5f818152600260205260408120546001600160a01b03168061039757604051637e27328960e01b815260048101849052602401610300565b6105058383836001610ca2565b5f828152600260205260408120546001600160a01b039081169083161561087357610873818486610da6565b6001600160a01b038116156108ad5761088e5f855f80610ca2565b6001600160a01b0381165f90815260036020526040902080545f190190555b6001600160a01b038516156108db576001600160a01b0385165f908152600360205260409020805460010190555b5f8481526002602052604080822080546001600160a01b0319166001600160a01b0389811691821790925591518793918516917fddf252ad1be2c89b69c2b068fc378daa952ba7f163c4a11628f55a4df523b3ef91a4949350505050565b600780546001600160a01b038381166001600160a01b0319831681179093556040519116919082907f8be0079c531659141344cd1fd0a4f28419497f9722a3daafe3b4186f6b6457e0905f90a35050565b6001600160a01b0383166109b35760405163a9fbf51f60e01b81525f6004820152602401610300565b6001600160a01b0382166109e557604051630b61174360e31b81526001600160a01b0383166004820152602401610300565b6001600160a01b038381165f81815260056020908152604080832094871680845294825291829020805460ff191686151590811790915591519182527f17307eab39ab6107e8899845ad3d59bd9653f200f220920489ca2b5937696c31910160405180910390a3505050565b6001600160a01b0383163b15610b7257604051630a85bd0160e11b81526001600160a01b0384169063150b7a0290610a939088908890879087906004016115b9565b6020604051808303815f875af1925050508015610acd575060408051601f3d908101601f19168201909252610aca918101906115f5565b60015b610b34573d808015610afa576040519150601f19603f3d011682016040523d82523d5f602084013e610aff565b606091505b5080515f03610b2c57604051633250574960e11b81526001600160a01b0385166004820152602401610300565b805160208201fd5b6001600160e01b03198116630a85bd0160e11b14610b7057604051633250574960e11b81526001600160a01b0385166004820152602401610300565b505b5050505050565b6060600980546103ab9061139d565b5f818152600660205260409020805460609190610ba49061139d565b80601f0160208091040260200160405190810160405280929190818152602001828054610bd09061139d565b8015610c1b5780601f10610bf257610100808354040283529160200191610c1b565b820191905f5260205f20905b815481529060010190602001808311610bfe57829003601f168201915b50505050509050919050565b6060610c3282610802565b505f610c3c610b79565b90505f815111610c5a5760405180602001604052805f81525061036c565b80610c6484610e0a565b604051602001610c759291906114ea565b6040516020818303038152906040529392505050565b610c958383610e9a565b610505335f858585610a51565b8080610cb657506001600160a01b03821615155b15610d77575f610cc584610802565b90506001600160a01b03831615801590610cf15750826001600160a01b0316816001600160a01b031614155b8015610d045750610d0281846106b4565b155b15610d2d5760405163a9fbf51f60e01b81526001600160a01b0384166004820152602401610300565b8115610d755783856001600160a01b0316826001600160a01b03167f8c5be1e5ebec7d5bd14f71427d1e84f3dd0314c0f7b2291e5b200ac8c7c3b92560405160405180910390a45b505b50505f90815260046020526040902080546001600160a01b0319166001600160a01b0392909216919091179055565b610db1838383610efb565b610505576001600160a01b038316610ddf57604051637e27328960e01b815260048101829052602401610300565b60405163177e802f60e01b81526001600160a01b038316600482015260248101829052604401610300565b60605f610e1683610f5c565b60010190505f8167ffffffffffffffff811115610e3557610e3561125c565b6040519080825280601f01601f191660200182016040528015610e5f576020820181803683370190505b5090508181016020015b5f19016f181899199a1a9b1b9c1cb0b131b232b360811b600a86061a8153600a8504945084610e6957509392505050565b6001600160a01b038216610ec357604051633250574960e11b81525f6004820152602401610300565b5f610ecf83835f610847565b90506001600160a01b03811615610505576040516339e3563760e11b81525f6004820152602401610300565b5f6001600160a01b038316158015906106205750826001600160a01b0316846001600160a01b03161480610f345750610f3484846106b4565b806106205750505f908152600460205260409020546001600160a01b03908116911614919050565b5f8072184f03e93ff9f4daa797ed6e38ed64bf6a1f0160401b8310610f9a5772184f03e93ff9f4daa797ed6e38ed64bf6a1f0160401b830492506040015b6d04ee2d6d415b85acef81000000008310610fc6576d04ee2d6d415b85acef8100000000830492506020015b662386f26fc100008310610fe457662386f26fc10000830492506010015b6305f5e1008310610ffc576305f5e100830492506008015b612710831061101057612710830492506004015b60648310611022576064830492506002015b600a83106103975760010192915050565b80356001600160a01b0381168114611049575f80fd5b919050565b5f8083601f84011261105e575f80fd5b50813567ffffffffffffffff811115611075575f80fd5b60208301915083602082850101111561108c575f80fd5b9250929050565b5f805f604084860312156110a5575f80fd5b6110ae84611033565b9250602084013567ffffffffffffffff8111156110c9575f80fd5b6110d58682870161104e565b9497909650939450505050565b6001600160e01b03198116811461071b575f80fd5b5f60208284031215611107575f80fd5b813561036c816110e2565b5f81518084528060208401602086015e5f602082860101526020601f19601f83011685010191505092915050565b602081525f61036c6020830184611112565b5f60208284031215611162575f80fd5b5035919050565b5f806040838503121561117a575f80fd5b61118383611033565b946020939093013593505050565b5f805f606084860312156111a3575f80fd5b6111ac84611033565b92506111ba60208501611033565b929592945050506040919091013590565b5f80602083850312156111dc575f80fd5b823567ffffffffffffffff8111156111f2575f80fd5b6111fe8582860161104e565b90969095509350505050565b5f6020828403121561121a575f80fd5b61036c82611033565b5f8060408385031215611234575f80fd5b61123d83611033565b915060208301358015158114611251575f80fd5b809150509250929050565b634e487b7160e01b5f52604160045260245ffd5b5f805f8060808587031215611283575f80fd5b61128c85611033565b935061129a60208601611033565b925060408501359150606085013567ffffffffffffffff8111156112bc575f80fd5b8501601f810187136112cc575f80fd5b803567ffffffffffffffff8111156112e6576112e661125c565b604051601f8201601f19908116603f0116810167ffffffffffffffff811182821017156113155761131561125c565b60405281815282820160200189101561132c575f80fd5b816020840160208301375f6020838301015280935050505092959194509250565b5f806040838503121561135e575f80fd5b61136783611033565b915061137560208401611033565b90509250929050565b8082018082111561039757634e487b7160e01b5f52601160045260245ffd5b600181811c908216806113b157607f821691505b6020821081036113cf57634e487b7160e01b5f52602260045260245ffd5b50919050565b601f82111561050557805f5260205f20601f840160051c810160208510156113fa5750805b601f840160051c820191505b81811015610b72575f8155600101611406565b67ffffffffffffffff8311156114315761143161125c565b6114458361143f835461139d565b836113d5565b5f601f841160018114611476575f851561145f5750838201355b5f19600387901b1c1916600186901b178355610b72565b5f83815260208120601f198716915b828110156114a55786850135825560209485019460019092019101611485565b50868210156114c1575f1960f88860031b161c19848701351681555b505060018560011b0183555050505050565b5f81518060208401855e5f93019283525090919050565b5f6106206114f883866114d3565b846114d3565b815167ffffffffffffffff8111156115185761151861125c565b61152c81611526845461139d565b846113d5565b6020601f82116001811461155e575f83156115475750848201515b5f19600385901b1c1916600184901b178455610b72565b5f84815260208120601f198516915b8281101561158d578785015182556020948501946001909201910161156d565b50848210156115aa57868401515f19600387901b60f8161c191681555b50505050600190811b01905550565b6001600160a01b03858116825284166020820152604081018390526080606082018190525f906115eb90830184611112565b9695505050505050565b5f60208284031215611605575f80fd5b815161036c816110e256fea2646970667358221220fb182338e55f432d71cfd8a19087246c2ba472ad67b4c478acbe07541c51f64e64736f6c634300081a0033",
  "linkReferences": {},
  "deployedLinkReferences": {},
  "immutableReferences": {},
  "inputSourceName": "project/src/GenesoGenesis721.sol",
  "buildInfoId": "solc-0_8_26-1fbe085e6ddf664deaff3174d05ffa9128c95ec4"
}